:100000000C946B010C945A080C942F080C9404085F
:100010000C94D9070C94AE070C9483070C945807E2
:100020000C942D070C949C010C949C010C949C0145
:100030000C949C010C949C010C949C010C949C01CC
:100040000C949C010C94CF090C949C010C949C0181
:100050000C949C010C949C010C949C010C94E30660
:100060000C949C010C940F090C94E5080C949C01D1
:100070000C949C010C949C010C949C010C949C018C
:100080000C94A1090C949C010C949C010C949C016F
:100090000C94AF080C9485080C949C010C949C0162
:1000A0000C949C010C949C010C9473090C949C017D
:1000B0000C949C010C949C010C949C010C9445099B
:1000C0000C949C010C949C010C949C010C949C013C
:1000D0000C949C010C949C010C949C010C949C012C
:1000E0000C949C01084AD73B3BCE016E84BCBFFDFB
:1000F000C12F3D6C74319ABD56833DDA3D00C77FF8
:1001000011BED9E4BB4C3E916BAAAABE0000008090
:100110003F05A84CCDB2D44EB93836A9020C50B91F
:10012000918688083CA6AAAA2ABE000000803F004B
:100130000C943D040C948C040C943D020C94250208
:100140000C94D9020C947A030C942A030C94470261
:100150000C947E040C9433020C9414020C94160339
:100160000C9421020C9407030C9418020C94420A7C
:100170000C944B020C942F020C9463040C943902DF
:100180000C9410020C94F5010C94C7030C943C04DD
:100190000C94DA020C941B020C9438030C940C029D
:1001A0000C94DD040C94C7040C94FA010C942B02FB
:1001B0000C944102000020002300260029002C009E
:1001C0002F003200000100000301060109010000B8
:1001D0002100240027002A002D00300033000101F7
:1001E0000000040107010A01000022002500280088
:1001F0002B002E003100340002010000050108012F
:100200000B0105050505070508080808020202029A
:100210000A0A0808040404040101010101010101A2
:100220000303030303030303040707070C0C0C0C6D
:100230000C0C0C0C02020202060606060606060656
:100240000B0B0B0B0B0B0B0B0102102020080810E3
:100250002040102040800201020108040201010236
:10026000040810204080804020100804020180040F
:10027000020180402010080402010804020101026A
:100280000408102040800102040810204080000073
:100290000A0B02090C0D0E08070304010000000000
:1002A000000000000000000000000000000000004E
:1002B000000000000000000000001211100000000B
:1002C000000000000000000000000000000000002E
:1002D00000000000420A11241FBECFEFD1E2DEBFB2
:1002E000CDBF00E00CBF12E0A0E0B2E0EEE6FBE222
:1002F00000E00BBF02C007900D92AC39B107D9F7EF
:1003000025E0ACE9B2E001C01D92A635B207E1F7E5
:1003100011E0CBE6D1E000E006C021970109802F73
:10032000FE010E941815CA36D10780E00807A9F718
:100330000E94190C0C94B5150C940000FC01A089C6
:10034000B18982E08C93A485B5851C92A685B7857A
:100350008FEC8C93108EA489B58986E08C93A2894A
:10036000B3898C9180618C93A289B3898C918860C8
:100370008C93A289B3898C9180688C930288F389CD
:10038000E02D80818F7D80830895282F30E0F90152
:10039000E257FD4F9491F901E85BFD4F44912E5FC8
:1003A0003D4FF9012491222309F435C0992311F11D
:1003B00091509231F8F4E92FF0E08827ED51FE4F8B
:1003C0008F4F0C94181514021802F5010C0210023C
:1003D000FA011B02210225022B022F0233023902ED
:1003E0003D02FA01410247024B02809180008F7763
:1003F00080938000E22FF0E0EE0FFF1FE851FE4FE8
:10040000A591B4918FB7F894EC91611148C04095D3
:100410004E234C938FBF0895809180008F7DE8CF4D
:1004200080918000877FE4CF84B58F7784BDE2CF51
:1004300084B58F7DFBCF8091B0008F778093B00023
:10044000D9CF8091B0008F7DF9CF809190008F77C8
:1004500080939000CFCF809190008F7DF9CF8091D5
:100460009000877FF5CF8091A0008F778093A000C8
:10047000C1CF8091A0008F7DF9CF8091A000877FB0
:10048000F5CF809120018F7780932001B3CF8091A9
:1004900020018F7DF9CF80912001877FF5CF4E2BF2
:1004A000B8CFCF93DF9390E0FC01E85BFD4F249140
:1004B0008E5F9D4FFC0184918823D1F090E0880FDE
:1004C000991FFC01E253FE4FA591B491FC01E85144
:1004D000FE4FC591D49161110EC09FB7F8948C91D5
:1004E000E22FE0958E238C932881E223E8839FBF3F
:1004F000DF91CF9108958FB7F894EC91E22BEC93B4
:100500008FBFF6CF3FB7F8948091A6029091A702D3
:10051000A091A802B091A90226B5A89B05C02F3FC3
:1005200019F00196A11DB11D3FBFBA2FA92F982F19
:100530008827BC01CD01620F711D811D911D42E014
:10054000660F771F881F991F4A95D1F708958F92DC
:100550009F92AF92BF92CF92DF92EF92FF924B01A8
:100560005C010E9482026B017C010E9482026C1974
:100570007D098E099F09683E734081059105A8F3A6
:1005800021E0821A9108A108B10888EEC80E83E024
:10059000D81EE11CF11C81149104A104B10429F7B7
:1005A000FF90EF90DF90CF90BF90AF909F908F9093
:1005B00008950895AF92BF92CF92DF92EF92FF928B
:1005C0000F931F93CF93DF936C017B018B01040F7B
:1005D000151FEB015E01AE18BF08C017D10759F017
:1005E0006991D601ED91FC910190F081E02DC60159
:1005F0001995892B79F7C501DF91CF911F910F9143
:10060000FF90EF90DF90CF90BF90AF900895FC01E6
:10061000538D448D252F30E0842F90E0821B930B67
:10062000541710F0CF96089501970895FC01918D0D
:10063000828D981761F0A28DAE0FBF2FB11D5D9610
:100640008C91928D9F5F9F73928F90E008958FEFB2
:100650009FEF0895FC01918D828D981731F0828D66
:10066000E80FF11D858D90E008958FEF9FEF0895BD
:10067000FC01918D228D892F90E0805C9F4F821B21
:1006800091098F73992708958AEA92E00E943803AE
:1006900021E0892B09F420E0822F089587E493E07C
:1006A0000E94380321E0892B09F420E0822F08956D
:1006B000FC01A48DA80FB92FB11DA35ABF4F2C91D7
:1006C000848D90E001968F739927848FA689B789CE
:1006D0002C93A089B1898C91837080648C93938DC5
:1006E000848D981306C00288F389E02D80818F7D68
:1006F00080830895EF92FF920F931F93CF93DF9320
:10070000EC0181E0888F9B8D8C8D98131AC0E8894D
:10071000F989808185FF15C09FB7F894EE89FF891C
:100720006083E889F98980818370806480839FBFBA
:1007300081E090E0DF91CF911F910F91FF90EF90BA
:100740000895F62E0B8D10E00F5F1F4F0F731127CA
:10075000E02E8C8D8E110CC00FB607FCFACFE88905
:10076000F989808185FFF5CFCE010E945803F1CF32
:10077000EB8DEC0FFD2FF11DE35AFF4FF0829FB779
:10078000F8940B8FEA89FB8980818062CFCFCF9369
:10079000DF93EC01888D8823B9F0AA89BB89E889A9
:1007A000F9898C9185FD03C0808186FD0DC00FB64F
:1007B00007FCF7CF8C9185FFF2CF808185FFEDCFCD
:1007C000CE010E945803E9CFDF91CF91089580E0D8
:1007D00090E0892B29F00E944E0381110E940000B5
:1007E00080E090E0892B29F00E94440381110E944F
:1007F000000080E090E0892B49F080E090E0892BB8
:1008000029F00E94000081110E94000080E090E029
:10081000892B49F080E090E0892B29F00E940000AC
:1008200081110C94000008950F931F93CF93DF93D1
:10083000EC01062F142F60E088890E94C5019C8579
:100840008D859CBD8DBD0EBD00000DB407FEFDCF96
:100850008EB51EBD00000DB407FEFDCF1EB561E0D4
:1008600088890E94C501812FDF91CF911F910F913F
:10087000089540E00C94140408950F931F93CF93B0
:10088000DF93EC01E881F9810084F185E02D199571
:10089000892BB1F06DE0CE010E943904082F60E091
:1008A000CE010E943904182F402F6DE8CE010E941E
:1008B0001404812F90E0DF91CF911F910F91089543
:1008C0008FEF9FEFF8CFCF93DF93EC01E881F981B1
:1008D0000084F185E02D1995892B69F08A8D9B8D17
:1008E00001969B8F8A8F60E0CE010E94390490E0D0
:1008F000DF91CF9108958FEF9FEFFACFCF93DF93E2
:10090000EC0163E10E94390490E02A8D3B8D821B4B
:10091000930BDF91CF910895AF92BF92CF92DF9268
:10092000FF920F931F93CF93DF936C015B01EA015A
:1009300062E20E943904F82E90E09C012C0F3D1FCA
:100940002F3F310529F020F0CFEFD0E0C81BD90BA5
:100950008501AC0EBD1E0A151B0541F0F801419141
:100960008F0160E8C6010E941404F5CF4C2F4F0D93
:1009700062EAC6010E941404CE01DF91CF911F915B
:100980000F91FF90DF90CF90BF90AF900895CF93DD
:10099000DF931F92CDB7DEB76983DC01ED91FC9147
:1009A0000280F381E02D41E050E0BE016F5F7F4F98
:1009B00019950F90DF91CF91089590E080E0089510
:1009C000AF92BF92CF92DF92EF92FF920F931F935D
:1009D000CF93DF936B017A01EC01C456DD4F288180
:1009E0003CE0389F8001399F100D1124A090A50490
:1009F000B12C27FF1FC0FB011182108288818F5FFD
:100A0000888388819801280F311D87FD3A95F6016A
:100A10002A153B051CF488818C30C4F180819181BA
:100A2000049680349C4908F473C0F601808191815A
:100A3000049670C088819801280F311D87FD3A9572
:100A40002A153B05DCF68881A801480F511D87FD5A
:100A50005A95FA01EE0FFF1FE40FF51FEB5EFB4FF7
:100A6000808186FFCBCF8881F801E80FF11D87FDDB
:100A7000FA95CF01EE0FFF1FE80FF91FEB5EFB4F5A
:100A8000808160E08F730E94C501B8CF8081918121
:100A90002881A801420F511D27FD5A959A01FA019C
:100AA000EE0FFF1FE20FF31FEB5EFB4F2181328140
:100AB000820F931FF7019183808388819801280F0B
:100AC000311D87FD3A95F901EE0FFF1FE20FF31F6D
:100AD000EB5EFB4F808186FF22C08881080F111DCD
:100AE00087FD1A95F801EE0FFF1FE00FF11FEB5E77
:100AF000FB4F808161E08F73DF91CF911F910F9148
:100B0000FF90EF90DF90CF90BF90AF900C94C50115
:100B100080E49CE9F701918380838FEF8883DF91E4
:100B2000CF911F910F91FF90EF90DF90CF90BF90EA
:100B3000AF900895FB0101900020E9F73197AF01D4
:100B4000461B570BDC01ED91FC910280F381E02DF7
:100B500019948F929F92AF92BF92EF92FF920F9350
:100B60001F93CF93DF93CDB7DEB7A1970FB6F8945D
:100B7000DEBF0FBECDBF7C01FA01CB0119A222302E
:100B800008F42AE08E010F5D1F4F822E912CB12CAC
:100B9000A12CBF01A50194010E94A912F901CA016B
:100BA0006A300CF5605DD8016E938D01232B242BE8
:100BB000252B79F790E080E0109721F0BD01C70167
:100BC0000E949A05A1960FB6F894DEBF0FBECDBF66
:100BD000DF91CF911F910F91FF90EF90BF90AF9059
:100BE0009F908F900895695CDECF2F923F924F9235
:100BF0005F926F927F928F929F92AF92BF92CF92AD
:100C0000DF92EF92FF921F93CF93DF93EC016A0183
:100C10007B01722EAB019601CB01B6010E94E51457
:100C200068E372E0811126C046015701E894B7F8E5
:100C30002FEF3FEF4FE75FE7C501B4010E94E514D6
:100C400081110CC02FEF3FEF4FE75FE7C501B40103
:100C50000E9453116CE372E0181664F02FEF3FEF1F
:100C60004FE75FE4C701B6010E94CC141816B4F434
:100C700060E472E0CE01DF91CF911F91FF90EF9081
:100C8000DF90CF90BF90AF909F908F907F906F90AC
:100C90005F904F903F902F900C949A052FEF3FEF6D
:100CA0004FE75FECC701B6010E94531187FDE0CF0B
:100CB00020E030E0A901C701B6010E945311312C98
:100CC000212C87FF0DC0E881F9810190F081E02D92
:100CD0006DE2CE0119951C01F7FAF094F7F8F09443
:100CE00010E060E070E080E09FE3711641F020E0EA
:100CF00030E040E251E40E94BE131F5FF6CFA7012F
:100D000096010E94DB122B013C010E9437144B011B
:100D10005C012AE0BC01A401CE010E94A9057C016E
:100D2000E20CF31C1123E1F1C501B4010E9458113A
:100D30009B01AC01C301B2010E94DA124B015C01BC
:100D4000E881F9810190F081E02D6EE2CE011995E4
:100D5000E80EF91E115020F120E030E040E251E4AD
:100D6000C501B4010E94B9112B013C010E94371446
:100D70004B01B12CA12C2AE0B501A401CE010E94A7
:100D8000A905E80EF91EC501B4010E9458119B0186
:100D9000AC01C301B2010E94DA124B015C01DACF4F
:100DA000C701DF91CF911F91FF90EF90DF90CF901F
:100DB000BF90AF909F908F907F906F905F904F907B
:100DC0003F902F9008951F920F920FB60F9211240B
:100DD0002F933F938F939F93AF93BF938091A202E2
:100DE0009091A302A091A402B091A5023091A1021A
:100DF00023E0230F2D3758F50196A11DB11D209337
:100E0000A1028093A2029093A302A093A402B093A4
:100E1000A5028091A6029091A702A091A802B0918C
:100E2000A9020196A11DB11D8093A6029093A7026D
:100E3000A093A802B093A902BF91AF919F918F9107
:100E40003F912F910F900FBE0F901F90189526E89D
:100E5000230F0296A11DB11DD2CF1F920F920FB684
:100E60000F9211240BB60F922F933F934F935F93E2
:100E70006F937F938F939F93AF93BF93EF93FF9362
:100E8000E0910E02F0910F021995FF91EF91BF9141
:100E9000AF919F918F917F916F915F914F913F9112
:100EA0002F910F900BBE0F900FBE0F901F901895B3
:100EB0001F920F920FB60F9211240BB60F922F9321
:100EC0003F934F935F936F937F938F939F93AF93D2
:100ED000BF93EF93FF93E0910C02F0910D021995EF
:100EE000FF91EF91BF91AF919F918F917F916F9102
:100EF0005F914F913F912F910F900BBE0F900FBEBE
:100F00000F901F9018951F920F920FB60F921124F9
:100F10000BB60F922F933F934F935F936F937F93F3
:100F20008F939F93AF93BF93EF93FF93E091020250
:100F3000F09103021995FF91EF91BF91AF919F91AD
:100F40008F917F916F915F914F913F912F910F9072
:100F50000BBE0F900FBE0F901F9018951F920F920F
:100F60000FB60F9211240BB60F922F933F934F930E
:100F70005F936F937F938F939F93AF93BF93EF9301
:100F8000FF93E0910002F09101021995FF91EF911A
:100F9000BF91AF919F918F917F916F915F914F9191
:100FA0003F912F910F900BBE0F900FBE0F901F908F
:100FB00018951F920F920FB60F9211240BB60F9235
:100FC0002F933F934F935F936F937F938F939F9351
:100FD000AF93BF93EF93FF93E0910A02F0910B025E
:100FE0001995FF91EF91BF91AF919F918F917F9153
:100FF0006F915F914F913F912F910F900BBE0F908A
:101000000FBE0F901F9018951F920F920FB60F9260
:1010100011240BB60F922F933F934F935F936F93CF
:101020007F938F939F93AF93BF93EF93FF93E09141
:101030000802F09109021995FF91EF91BF91AF91CC
:101040009F918F917F916F915F914F913F912F91E0
:101050000F900BBE0F900FBE0F901F9018951F9210
:101060000F920FB60F9211240BB60F922F933F934E
:101070004F935F936F937F938F939F93AF93BF93A0
:10108000EF93FF93E0910602F09107021995FF910B
:10109000EF91BF91AF919F918F917F916F915F91F0
:1010A0004F913F912F910F900BBE0F900FBE0F905D
:1010B0001F9018951F920F920FB60F9211240BB626
:1010C0000F922F933F934F935F936F937F938F93E1
:1010D0009F93AF93BF93EF93FF93E0910402F0913E
:1010E00005021995FF91EF91BF91AF919F918F915B
:1010F0007F916F915F914F913F912F910F900BBE18
:101100000F900FBE0F901F9018951F920F920FB661
:101110000F9211240BB60F922F933F934F935F932F
:101120006F937F938F939F93AF93BF93EF93FF93AF
:101130008AEA92E00E945803FF91EF91BF91AF912C
:101140009F918F917F916F915F914F913F912F91DF
:101150000F900BBE0F900FBE0F901F9018951F920F
:101160000F920FB60F9211240BB60F922F938F93FD
:101170009F93EF93FF93E091BA02F091BB028081BD
:10118000E091C002F091C10282FD1DC0908180916A
:10119000C3028F5F8F732091C402821741F0E091E8
:1011A000C302F0E0E655FD4F958F8093C302FF9197
:1011B000EF919F918F912F910F900BBE0F900FBECB
:1011C0000F901F9018958081F2CF1F920F920FB64B
:1011D0000F9211240BB60F922F933F934F935F936F
:1011E0006F937F938F939F93AF93BF93EF93FF93EF
:1011F00087E493E00E945803FF91EF91BF91AF9174
:101200009F918F917F916F915F914F913F912F911E
:101210000F900BBE0F900FBE0F901F9018951F924E
:101220000F920FB60F9211240BB60F922F938F933C
:101230009F93EF93FF93E0915703F09158038081C0
:10124000E0915D03F0915E0382FD1DC0908180916D
:1012500060038F5F8F7320916103821741F0E091EB
:101260006003F0E0E95BFC4F958F80936003FF9192
:10127000EF919F918F912F910F900BBE0F900FBE0A
:101280000F901F9018958081F2CF1F920F920FB68A
:101290000F9211240BB60F922F933F934F935F93AE
:1012A0006F937F938F939F93AF93BF93EF93FF932E
:1012B00048E251E064E271E090E080E00E94E004E6
:1012C000FF91EF91BF91AF919F918F917F916F911E
:1012D0005F914F913F912F910F900BBE0F900FBEDA
:1012E0000F901F9018951F920F920FB60F92112416
:1012F0000BB60F922F933F934F935F936F937F9310
:101300008F939F93AF93BF93EF93FF9348EA50E07F
:1013100064EA70E083E090E00E94E004FF91EF91C6
:10132000BF91AF919F918F917F916F915F914F91FD
:101330003F912F910F900BBE0F900FBE0F901F90FB
:1013400018951F920F920FB60F9211240BB60F92A1
:101350002F933F934F935F936F937F938F939F93BD
:10136000AF93BF93EF93FF9348E950E064E970E0D7
:1013700082E090E00E94E004FF91EF91BF91AF9175
:101380009F918F917F916F915F914F913F912F919D
:101390000F900BBE0F900FBE0F901F9018951F92CD
:1013A0000F920FB60F9211240BB60F922F933F930B
:1013B0004F935F936F937F938F939F93AF93BF935D
:1013C000EF93FF9348E850E064E870E081E090E03C
:1013D0000E94E004FF91EF91BF91AF919F918F9197
:1013E0007F916F915F914F913F912F910F900BBE25
:1013F0000F900FBE0F901F901895CF92DF92EF9233
:10140000FF920F931F93E82FF92F05C00150110988
:101410002109310961F1908196239417B9F305C030
:10142000015011092109310911F19081962394137A
:10143000F7CFC12CD12CE12CF12C0AC08FEFC81AA8
:10144000D80AE80AF80A0C151D052E053F0579F0A3
:1014500080818623841791F36C2D7D2D8E2D9F2DF9
:101460001F910F91FF90EF90DF90CF90089560E073
:1014700070E080E090E01F910F91FF90EF90DF907F
:10148000CF9008951092AD021092AC0248EE53E056
:1014900060E070E04093AE025093AF026093B00200
:1014A0007093B10288E192E09093AB028093AA021C
:1014B0002DEC30E03093B7022093B6022CEC30E0F4
:1014C0003093B9022093B80228EC30E03093BB028D
:1014D0002093BA0229EC30E03093BD022093BC0285
:1014E0002AEC30E03093BF022093BE022EEC30E0B5
:1014F0003093C1022093C0021092C3021092C40222
:101500001092C5021092C60210924A03109249032B
:1015100040934B0350934C0360934D0370934E03E1
:10152000909348038093470385EC90E09093540395
:101530008093530384EC90E090935603809355037B
:1015400080EC90E0909358038093570381EC90E0F7
:1015500090935A038093590382EC90E090935C033C
:1015600080935B0386EC90E090935E0380935D0331
:101570001092600310926103109262031092630351
:101580001092E8031092E7038AE292E09093E60358
:101590008093E50380E58093F10381E08093F2037B
:1015A00084EE93E09093F4038093F3038AE090E059
:1015B0009093F6038093F50389E090E09093F8030D
:1015C0008093F70322E030E03093FA032093F9038D
:1015D0001092FB031092FC031092FD031092FE0385
:1015E000109200041092FF03109202041092010462
:1015F0001092040410920304109206041092050441
:101600001092E9031092EA031092EB031092EC039C
:1016100046E350E0509312044093110430931404B5
:10162000209313049093100480930F0480E49EE0B1
:10163000AFECB9E180930B0490930C04A0930D04DC
:10164000B0930E0487E090E0909308048093070421
:1016500088E090E090930A048093090461E087E0B9
:101660000E94510260E088E00E9451028091A5042E
:10167000803308F0DAC091E0980F9093A50480932E
:10168000A60490E0FC01EE0FFF1FE80FF91FEB5ED0
:10169000FB4F88EB9BE0928381831092A904109208
:1016A000AA041092AC041092AB041092AD041092F4
:1016B000AE041092AF041092B0041092B1041092D4
:1016C000B3041092B2041092B4041092B5041092B4
:1016D000B6041092B7041092B8041092BA04109293
:1016E000B9041092BB041092BC041092BD04109275
:1016F000BE041092BF041092C1041092C004109254
:10170000C2041092C3041092C4041092C504109233
:10171000C6041092CB041092CC041092CD04109207
:10172000CE041092CF041092D0041092D9041092DB
:10173000DA041092DB041092DC041092DD041092A3
:10174000DE041092E7041092E8041092ED04109267
:10175000EE041092EF041092F0041092F50410922F
:10176000F6041092FB041092FC041092FD041092F7
:10177000FE041092030510920405109209051092C0
:101780000A0510920B0510920C051092110510928B
:101790001205109217051092180510921905109253
:1017A0001A0510921F05109220051092250510921F
:1017B0002605109227051092280510922D051092EB
:1017C0002E0582E080933E0510923F051092400561
:1017D0001092410510924305109242051092450562
:1017E0001092440510924605109247051092480544
:1017F0001092490510924A0510924B0510924C0523
:1018000010924D0510924E0510924F051092500502
:1018100010925105109252051092530510925405E2
:101820001092550510922F0508958FEF8093A6040E
:1018300034CFCF93DF93CDB7DEB72E970FB6F894A2
:10184000DEBF0FBECDBF789484B5826084BD84B501
:10185000816084BD85B5826085BD85B5816085BDAB
:1018600080916E00816080936E0010928100809163
:1018700081008260809381008091810081608093EB
:101880008100809180008160809380008091B10010
:1018900084608093B1008091B00081608093B0003B
:1018A000809191008260809391008091910081608D
:1018B000809391008091900081608093900080914E
:1018C000A10082608093A1008091A100816080933B
:1018D000A1008091A00081608093A00080912101EF
:1018E0008260809321018091210181608093210198
:1018F0008091200181608093200180917A00846032
:1019000080937A0080917A00826080937A0080913F
:101910007A00816080937A0080917A008068809359
:101920007A001092C10087E493E00E949E0160E07B
:10193000809113040E9451028AEA92E00E949E0163
:1019400020910F0429838091A604803308F054C0AD
:1019500061E0822F0E9451028091A604282F30E07E
:10196000F901EE0FFF1FE20FF31FEB5EFB4F398112
:101970003F739081907C932B90831092A7041092D8
:10198000A8042CE0622F0E940C15829FB001112444
:1019900030E020E0AB01420F531FFA01EE0FFF1FB2
:1019A000E40FF51FEB5EFB4F908196FD17C02F5F94
:1019B0003F4F2C30310571F7813009F024C210926D
:1019C000800082E080938100109285001092840054
:1019D000B19A80916F00826080936F00E091A604BD
:1019E0008E2F90E0FC01EE0FFF1FE80FF91FEB5E5A
:1019F000FB4F808180648083C0900B04D0900C04E6
:101A0000E0900D04F0900E0461E08091F5030E94D7
:101A1000510261E08091F5030E94C5018091F703B6
:101A20009091F8038F3F9807C9F061E00E9451023E
:101A300060E08091F7030E94C5016AE070E080E0F9
:101A400090E00E94A70261E08091F7030E94C50127
:101A50006AE070E080E090E00E94A7023FB739831F
:101A6000F8948091A002811127C0E7E3F2E084910D
:101A7000EDE7F2E09491E82FF0E0EE0FFF1FE25364
:101A8000FE4FA591B491EC91E92321F461E085E347
:101A90000E94C50161E085E30E9451028CB580611E
:101AA0008CBD8CB580648CBD61E084E30E945102E2
:101AB00061E083E30E9451028091A0028F5F8093D6
:101AC000A00289818FBF62E485EE93E00E94390411
:101AD000823109F084C040E861E885EE93E00E941D
:101AE0001404C092FB03D092FC03E092FD03F09239
:101AF000FE0346015701BB0C8808982C540196013F
:101B0000A701682D782D882D982D03E10E947F155F
:101B1000A12CE8E4BE2EF8EECF2EDD24D394E12CE8
:101B2000F12C00E010E00E9422152983B32E6A01F7
:101B30007B01182F9D8300E10E949A15422F66E8D1
:101B400085EE93E00E94140429813B2DA601B70184
:101B5000812F9D8108E00E949A15422F67E885EE4B
:101B600093E00E941404498168E885EE93E00E94A6
:101B7000140440E06EE885EE93E00E94140440E017
:101B80006FE885EE93E00E9414046CE085EE93E02C
:101B90000E943904482F43606CE885EE93E00E9470
:101BA000140444E066EA85EE93E00E94140444E8DD
:101BB0006DEC85EE93E00E9414044BE26BE885EE39
:101BC00093E00E9414044FE869E885EE93E00E94D8
:101BD000140441E861E885EE93E00E94140468E58E
:101BE000262E62E0362E60E0809107040E94C50137
:101BF00083E090E00197F1F761E0809107040E9493
:101C0000C50183E290E00197F1F760E0809107045D
:101C10000E94C5018091090490910A049927FC0152
:101C2000E85BFD4F6491FC01EE5FFD4FE491F0E055
:101C3000EE0FFF1FEC54FE4F8591949100E412E4E7
:101C40002FE030E0462F0E94FD09611571058105E6
:101C5000910529F06F5F7F4F8F4F9F4F9F700E94BC
:101C60005A1126E933E44BE05DE30E94B91120E00C
:101C700030E040E05FE30E94B9110E9430146150EF
:101C80007109810991096D3171058105910560F432
:101C900064E472E087E493E00E949A0569E672E0EA
:101CA00087E493E00E949A0580911104863308F03E
:101CB000865320917B00982F9870277F922B9093CA
:101CC0007B008770806480937C0080917A008064C0
:101CD00080937A0080917A0086FDFCCF6091780035
:101CE00070917900072E000C880B990B0E945A11F5
:101CF0002BE03DE244EB5EE30E94B91169837A83F5
:101D00008B839C830E94FB106B017C016CE672E06C
:101D100087E493E00E949A05C701B60123E130E011
:101D200040E050E00E9477126F5F7F4F8F4F9F4FD0
:101D30000E945A11AB01BC0122E087E493E00E94AB
:101D4000F50569E672E087E493E00E949A058091C8
:101D5000A904882309F483C01092AA046091AD04F9
:101D60007091AE048091AF049091B0040E9458111C
:101D700028E23BE64EE65EE40E94BE136B017C0166
:101D80006091AB047091AC0490E080E00E94581127
:101D90009B01AC01C701B6010E94DB122B013C0183
:101DA0008091B104882321F077FA709477F87094C9
:101DB0006091B4047091B5048091B6049091B70419
:101DC0000E94581128E23BE64EE65EE40E94BE13F4
:101DD0006B017C016091B2047091B30490E080E0EB
:101DE0000E9458119B01AC01C701B6010E94DB1291
:101DF0009B01AC018091B80481115058022F3D879E
:101E00004E87152F35C0823061F410929000809378
:101E10009100109295001092940088BB80937100FD
:101E2000DDCD833069F41092A00082E08093A100A0
:101E30001092A5001092A40089BB80937200CECDB1
:101E40008111CCCD1092200182E08093210110926B
:101E50002501109224018ABB80937300BFCD412CD1
:101E6000512C320100E01D861E8610E0A301920174
:101E700062E173E084E992EC0E94DA1225E33AEF22
:101E80004EE85CE30E94B9114B015C0125E33AEF97
:101E90004EE85CE3C301B2010E94B9116B017C0101
:101EA000C501B4010E94D9146D837E838F83988706
:101EB000C701B6010E94D91469877A878B879C87EE
:101EC000C501B4010E94B9134B015C012CE83BE051
:101ED00042E45FE369857A858B859C850E94B91110
:101EE000A50194010E94B9114B015C01C701B60123
:101EF0000E94B91324E03BEF46E25FE30E94B91170
:101F0000A50194010E94DA126B017C012CE83BE0F0
:101F100042E45FE36D817E818F8198850E94B911D3
:101F2000A70196010E945A136B017C0120E030E06A
:101F3000A9010E94531187FF0AC02BED3FE049EC35
:101F400050E4C701B6010E94DB126B017C0121EE57
:101F50003EE245E652E4C701B6010E94B9116B01A9
:101F60007C0129813A814B815C810E94DA120E94B6
:101F70003014DB0177FFEEC0A859BE4FB7FDE7C0B4
:101F8000A53BB10514F0A4EBB0E08091A70498E85C
:101F9000892E912C881A910887FD9394880C991C9E
:101FA000880C991C092C000CAA08BB088091A80475
:101FB0009101281B310987FD3395220F331F220F12
:101FC000331F032E000C440B550B281939094A09FD
:101FD0005B090E94A11224EB30E040E050E00E9437
:101FE0007712820E931EA41EB51ED4014091A60442
:101FF000403388F58091A70428E830E0281B310998
:1020000087FD3395C901880F991F880F991FA8175D
:10201000B90784F08091A8049101281B310987FD3C
:102020003395C901880F991F880F991FA817B90701
:102030000CF4CD010297880F991F6FB7F89450E008
:102040009A01220F331F240F351FF901EB5EFB4F5E
:10205000928381836FBF61E085EE93E00E94390433
:102060008370833079F162E185EE93E00E94390458
:1020700083FF06C048E062E985EE93E00E94140405
:1020800041E861E885EE93E00E9414041092020496
:10209000109201046DE185EE93E00E943904482F0F
:1020A0004E7F6DE985EE93E00E94140440E06DE8F8
:1020B00085EE93E00E94140440E062EA85EE93E02E
:1020C0000E94140469E772E085EE93E00E949A058D
:1020D00026E0B301A20185EE93E00E94F50564E8D5
:1020E00072E085EE93E00E949A0526E0402F5D8520
:1020F0006E85712F85EE93E00E94F50561E972E02F
:1021000085EE93E00E949A0522E0B701A60185EED4
:1021100093E00E94F50543E861E885EE93E00E94B4
:10212000140462E185EE93E00E94390483FFF9CF45
:1021300048E062E985EE93E00E94140468EE73E0E3
:1021400080E090E00E94A7020E94E7034CCDB0E03F
:10215000A0E01BCF603272400CF048CF11CF8F92BD
:102160009F92AF92BF92CF92DF92EF92FF92CF9366
:10217000DF93EC01688179818A819B81611571050A
:102180008105910521F464E279ED8BE597E02DE17D
:1021900033EF41E050E00E94771249015A019B0160
:1021A000AC01A7EAB1E40E9496126B017C01ACEE8F
:1021B000B4EFA50194010E94A412C60ED71EE81E1A
:1021C000F91EF7FE06C081E0C81AD108E10880E8D0
:1021D000F80AC882D982EA82FB82C701B6019F77DA
:1021E000DF91CF91FF90EF90DF90CF90BF90AF90B5
:1021F0009F908F9008958F929F92AF92BF92CF92AF
:10220000DF92EF92FF926091100270911102809123
:10221000120290911302611571058105910521F457
:1022200064E279ED8BE597E02DE133EF41E050E09A
:102230000E94771249015A019B01AC01A7EAB1E45F
:102240000E9496126B017C01ACEEB4EFA5019401E3
:102250000E94A412C60ED71EE81EF91EF7FE06C085
:1022600081E0C81AD108E10880E8F80AC09210029B
:10227000D0921102E0921202F0921302C701B6014D
:102280009F77FF90EF90DF90CF90BF90AF909F909F
:102290008F90089560931002709311028093120240
:1022A0009093130208950E94951108F481E0089517
:1022B000E89409C097FB3EF49095809570956195E0
:1022C0007F4F8F4F9F4F9923A9F0F92F96E9BB2796
:1022D0009395F695879577956795B795F111F8CF12
:1022E000FAF4BB0F11F460FF1BC06F5F7F4F8F4F7D
:1022F0009F4F16C0882311F096E911C0772321F073
:102300009EE8872F762F05C0662371F096E8862F0A
:1023100070E060E02AF09A95660F771F881FDAF761
:10232000880F9695879597F90895990F0008550F8E
:10233000AA0BE0E8FEEF16161706E807F907C0F04B
:1023400012161306E407F50798F0621B730B840B53
:10235000950B39F40A2661F0232B242B252B21F42D
:1023600008950A2609F4A140A6958FEF811D811DCD
:1023700008950E94CC110C943D120E942F1238F047
:102380000E94361220F0952311F00C9426120C9422
:102390002C1211240C9471120E944E1270F3959F0E
:1023A000C1F3950F50E0551F629FF001729FBB274C
:1023B000F00DB11D639FAA27F00DB11DAA1F649FE8
:1023C0006627B00DA11D661F829F2227B00DA11D9B
:1023D000621F739FB00DA11D621F839FA00D611D21
:1023E000221F749F3327A00D611D231F849F600D42
:1023F000211D822F762F6A2F11249F5750409AF06B
:10240000F1F088234AF0EE0FFF1FBB1F661F771FF6
:10241000881F91505040A9F79E3F510580F00C94C1
:1024200026120C9471125F3FE4F3983ED4F3869524
:1024300077956795B795F795E7959F5FC1F7FE2B61
:10244000880F911D9695879597F9089597F99F673D
:1024500080E870E060E008959FEF80EC089500242C
:102460000A941616170618060906089500240A94F9
:1024700012161306140605060895092E0394000C7F
:1024800011F4882352F0BB0F40F4BF2B11F460FF0E
:1024900004C06F5F7F4F8F4F9F4F089557FD905837
:1024A000440F551F59F05F3F71F04795880F97FB18
:1024B000991F61F09F3F79F08795089512161306D2
:1024C0001406551FF2CF4695F1DF08C01616170601
:1024D0001806991FF1CF8695710561050894089536
:1024E000E894BB2766277727CB0197F90895052E37
:1024F00097FB1EF400940E948E1257FD07D00E9495
:10250000A91207FC03D04EF40C948E1250954095FE
:10251000309521953F4F4F4F5F4F0895909580958F
:10252000709561957F4F8F4F9F4F08950E94CB12FA
:10253000A59F900DB49F900DA49F800D911D112417
:102540000895B7FF0C9496120E949612821B930B6B
:102550000895A1E21A2EAA1BBB1BFD010DC0AA1FE4
:10256000BB1FEE1FFF1FA217B307E407F50720F0FC
:10257000A21BB30BE40BF50B661F771F881F991F77
:102580001A9469F760957095809590959B01AC01C0
:10259000BD01CF010895A29FB001B39FC001A39FC9
:1025A000700D811D1124911DB29F700D811D11248C
:1025B000911D08955058BB27AA270E94F2120C942F
:1025C0003D120E942F1238F00E94361220F039F48A
:1025D0009F3F19F426F40C942C120EF4E095E7FBBF
:1025E0000C942612E92F0E944E1258F3BA17620774
:1025F00073078407950720F079F4A6F50C94701200
:102600000EF4E0950B2EBA2FA02D0B01B90190010D
:102610000C01CA01A0011124FF27591B99F0593F51
:1026200050F4503E68F11A16F040A22F232F342F99
:102630004427585FF3CF469537952795A795F040E7
:102640005395C9F77EF41F16BA0B620B730B840BFC
:10265000BAF09150A1F0FF0FBB1F661F771F881FB4
:10266000C2F70EC0BA0F621F731F841F48F487950C
:1026700077956795B795F7959E3F08F0B0CF9395FE
:10268000880F08F09927EE0F9795879508950E9477
:102690002F1260F080E891E009F49EEF0E9436125C
:1026A00028F040E851E071F45EEF0CC00C942C125D
:1026B0000C947012E92FE0780E944E1240F3092E1C
:1026C000052AB1F3261737074807590738F00E2EA9
:1026D00007F8E02569F0E025E0640AC0EF6307F839
:1026E000009407FADB01B9019D01DC01CA01AD01CB
:1026F000EF930E94D5130E943D120E948A135F91AE
:10270000552339F02BED3FE049E450FD49EC0C94A2
:10271000DB120895DF93DD27B92FBF7740E85FE331
:102720001616170648075B0718F4D92F0E94D11414
:102730009F938F937F936F930E94E114E4EEF0E0F8
:102740000E9466140E943D122F913F914F915F911C
:102750000E94CC11DD2351F09058A2EA2AED3FE00F
:1027600049EC5FE3D0785D270E94F212DF910C9470
:102770003D120E948F14E3950C94B8140E94D2135A
:102780000C943D120E94361258F00E942F1240F015
:1027900029F45F3F29F00C94261251110C94711208
:1027A0000C942C120E944E1268F39923B1F3552316
:1027B00091F3951B550BBB27AA2762177307840754
:1027C00038F09F5F5F4F220F331F441FAA1FA9F3EA
:1027D00035D00E2E3AF0E0E832D091505040E695D8
:1027E000001CCAF72BD0FE2F29D0660F771F881F39
:1027F000BB1F261737074807AB07B0E809F0BB0B2C
:10280000802DBF01FF2793585F4F3AF09E3F51053F
:1028100078F00C9426120C9471125F3FE4F3983E0A
:10282000D4F3869577956795B795F7959F5FC9F728
:10283000880F911D9695879597F90895E1E0660FA9
:10284000771F881FBB1F621773078407BA0720F022
:10285000621B730B840BBA0BEE1F88F7E09508958B
:102860000E9437146894B1110C94711208950E945B
:10287000561288F09F5798F0B92F9927B751B0F0AA
:10288000E1F0660F771F881F991F1AF0BA95C9F7F4
:1028900014C0B13091F00E947012B1E008950C9410
:1028A0007012672F782F8827B85F39F0B93FCCF3C3
:1028B000869577956795B395D9F73EF49095809571
:1028C000709561957F4F8F4F9F4F0895DF93CF9302
:1028D0001F930F93FF92EF92DF927B018C0168941C
:1028E00006C0DA2EEF010E94CC11FE01E894A591FA
:1028F0002591359145915591A6F3EF010E94F21271
:10290000FE019701A801DA9469F7DF90EF90FF903C
:102910000F911F91CF91DF9108950C942C120E947A
:102920005612D8F3E894E0E0BB279F57F0F02AED69
:102930003FE049EC06C0EE0FBB0F661F771F881FF4
:1029400028F0B23A62077307840728F0B25A620B84
:10295000730B840BE3959A9572F7803830F49A954F
:10296000BB0F661F771F881FD2F790480C94EC149A
:10297000EF93E0FF07C0A2EA2AED3FE049EC5FEBEE
:102980000E94F2120E943D120F90039401FC905895
:10299000E1E1F1E00C94F8140E94951108F48FEF36
:1029A00008959B01AC0160E070E080E89FE30C9427
:1029B000BE139F930E948F140F9007FCEE5F0C9440
:1029C000B8149B01AC010C94B9110E949511880BAD
:1029D000990B08959F3F31F0915020F4879577959A
:1029E0006795B795880F911D9695879597F90895E6
:1029F0009F938F937F936F93FF93EF939B01AC0112
:102A00000E94B911EF91FF910E9466142F913F919E
:102A10004F915F910C94B911991B79E004C0991FF3
:102A2000961708F0961B881F7A95C9F78095089528
:102A3000EE0FFF1F881F8BBF0790F691E02D1994B2
:102A4000689401C0E8948F929F92CF93DF930E9485
:102A50002E15DF91CF919F908F900895882499240F
:102A6000F401E401B0E49F93AA279A158B049C0417
:102A7000ED05FE05CF05D007A10798F4AD2FDC2F9B
:102A8000CF2FFE2FE92D982C892E982F872F762F68
:102A9000652F542F432F322F2227B85031F7BF9183
:102AA00027C01B2EBF91BB27220F331F441F551F6A
:102AB000661F771F881F991F881C991CEE1FFF1F18
:102AC000CC1FDD1FAA1FBB1F8A149B04EC05FD054C
:102AD000CE05DF05A007B10748F08A189B08EC096E
:102AE000FD09CE09DF09A00BB10B21601A94E1F6B4
:102AF0002EF49401AF01BE01CD01000C0895002E0B
:102B0000083090F0982F872F762F652F542F432F62
:102B1000322F22270850F4CF220F331F441F551F96
:102B2000661F771F881F991F0A95B2F7002D089519
:102B300097FD1094002E083098F00850232F342F62
:102B4000452F562F672F782F892F912DF4CF15946D
:102B500097958795779567955795479537952795D5
:0E2B60000A95AAF71124002D0895F894FFCFCE
:102B6E00D902D902D902D902D902D902D902D9027F
:102B7E0001000000000000007A03DA020703C70319
:102B8E00380316032A0300000000C7048C04DD047A
:102B9E003C047E0463043D046E616E00696E660043
:102BAE006F7666004F62737461636C652064657442
:102BBE006563746564212041646A757374696E6718
:102BCE0020636F757273652E000D0A0057696E646F
:102BDE002053706565643A20004C617469747564A5
:102BEE00653A2000204C6F6E6769747564653A20F3
:0C2BFE00002042656172696E673A200099
:00000001FF
