:100000000C9476010C94E10A0C94B60A0C948B0AB9
:100010000C94600A0C94350A0C940A0A0C94DF09BB
:100020000C94B4090C94840C0C94840C0C94840CE3
:100030000C94A7010C94A7010C94A7010C94A701A0
:100040000C94A7010C94560C0C94A7010C94A701D6
:100050000C94A7010C94A7010C94A7010C946A09B5
:100060000C94A7010C94960B0C946C0B0C94A701A8
:100070000C94A7010C94A7010C94A7010C94A70160
:100080000C94280C0C94A7010C94A7010C94A701C4
:100090000C94360B0C940C0B0C94A7010C94A70138
:1000A0000C94A7010C94A7010C94FA0B0C94A701D3
:1000B0000C94A7010C94A7010C94A7010C94CC0BF1
:1000C0000C94A7010C94A7010C94A7010C94A70110
:1000D0000C94A7010C94A7010C94A7010C94A70100
:1000E0000C94A701084AD73B3BCE016E84BCBFFDF0
:1000F000C12F3D6C74319ABD56833DDA3D00C77FF8
:1001000011BED9E4BB4C3E916BAAAABE0000008090
:100110003F05A84CCDB2D44EB93836A9020C50B91F
:10012000918688083CA6AAAA2ABE000000803F004B
:100130000C94E1030C940D030C9425030C94090317
:100140000C9466050C9471060C9489060C94F003CB
:100150000C9405030C9421030C94F5020C941204E6
:100160000C94B3030C94FB060C94D4020C94A105DC
:100170000C94B4030C94EA020C94CF020C94540433
:100180000C94450D0C9417030C941B030C945C0702
:100190000C94A1040C9416050C94F2020C94040423
:1001A0000C94AD140C94EE020C94E5060C9413031D
:1001B0000C94FF020C943D050C9458050C94FB0222
:1001C0000C94E6020C94170500002100240027007F
:1001D0002A002D0030003300010100000401070156
:1001E0000A0100000A0B02090C0D0E0807030401A6
:1001F00000000000000000000000000000000000FF
:1002000000000000000000000000000000001211CB
:1002100010000000000000000000000000000000CE
:100220000000000000000000000020002300260065
:1002300029002C002F0032000001000003010601FC
:10024000090100002200250028002B002E003100AB
:10025000340002010000050108010B010505050538
:10026000070508080808020202020A0A080804042E
:10027000040401010101010101010303030303035C
:100280000303040707070C0C0C0C0C0C0C0C0202EB
:10029000020206060606060606060B0B0B0B0B0BE8
:1002A0000B0B010210202008081020401020408075
:1002B000020102010804020101020408102040802A
:1002C00080402010080402018004020180402010B8
:1002D0000804020108040201010204081020408001
:1002E0000102040810204080450DAD1411241FBEEA
:1002F000CFEFD1E2DEBFCDBF00E00CBF12E0A0E047
:10030000B2E0EEEEF7E300E00BBF02C007900D9203
:10031000AC3DB107D9F725E0ACEDB2E001C01D92CC
:10032000AD3FB207E1F711E0C5E7D1E000E006C05C
:1003300021970109802FFE010E943219C437D1078D
:1003400080E00807A9F70E948A0F0C94E51B0C9423
:1003500000001092F5051092F4051092F30510922A
:10036000F2051092F1051092F0058DE991E090935D
:10037000F7058093F6058091E60596EF980F943087
:1003800048F02EEC280F243028F022EC280F2830DB
:1003900008F061C02DEB30E03093F1052093F005BB
:1003A0002BE931E03093F3052093F2052CE231E0A4
:1003B0003093F5052093F405943050F02EEC280F7F
:1003C000243030F022EC280FF0E0E0E0283010F488
:1003D000E8E6F0E02081943028F032EC380F383035
:1003E00008F469C031E0232B943048F09EEC980F5C
:1003F000943028F08E53F0E0E0E0883010F4E8E626
:10040000F0E020832091E60536EF320F343008F417
:1004100054C08EEC820F843008F44FC082EC820FFF
:10042000883008F44DC090E080E09093EE05809312
:10043000ED05343008F047C02650330B81E001C091
:10044000880F2A95EAF78093EF058091F605909141
:10045000F7050197F1F78091F4059091F505892B47
:1004600049F1E0912C03F0912D0385E0EA3DF80776
:1004700009F1309739F0A389B4899C9185898095D9
:1004800089238C938091F8058E7F8093F8051092D4
:100490002B0310922A038AED95E090932D0380930D
:1004A0002C03E091ED05F091EE0580819091EF0530
:1004B000892B8083089534E096CF8BE690E0B5CF0A
:1004C0008DE690E0B2CF88E0223309F4BCCF84E01F
:1004D000233309F4B8CF82E0243309F4B4CF82EC9B
:1004E000820F883018F42E53330BA8CF81E0ABCFA6
:1004F000FC01A089B18982E08C93A485B5851C920A
:10050000A685B7858FEC8C93108EA489B58986E07B
:100510008C93A289B3898C9180618C93A289B389D1
:100520008C9188608C93A289B3898C9180688C931C
:100530000288F389E02D80818F7D80830895282FA4
:1005400030E0F901EE51FE4F9491F901EE55FD4F67
:100550004491245A3D4FF9012491222309F435C0D6
:10056000992311F191509231F8F4E92FF0E08827A6
:10057000E354FD4F8F4F0C943219EE02F202CF027A
:10058000E602EA02D402F502FB02FF0205030903B8
:100590000D0313031703D4021B03210325038091CA
:1005A00080008F7780938000E22FF0E0EE0FFF1F36
:1005B000EE5BFD4FA591B4918FB7F894EC9161116A
:1005C00048C040954E234C938FBF08958091800082
:1005D0008F7DE8CF80918000877FE4CF84B58F77CF
:1005E00084BDE2CF84B58F7DFBCF8091B0008F7743
:1005F0008093B000D9CF8091B0008F7DF9CF8091EA
:1006000090008F7780939000CFCF809190008F7D66
:10061000F9CF80919000877FF5CF8091A0008F77F0
:100620008093A000C1CF8091A0008F7DF9CF8091F1
:10063000A000877FF5CF809120018F7780932001E4
:10064000B3CF809120018F7DF9CF80912001877FEA
:10065000F5CF4E2BB8CFCF93DF9390E0FC01EE5552
:10066000FD4F2491845A9D4FFC0184918823D1F041
:1006700090E0880F991FFC01E853FE4FA591B491BB
:10068000FC01EE5BFD4FC591D49161110EC09FB787
:10069000F8948C91E22FE0958E238C932881E223AD
:1006A000E8839FBFDF91CF9108958FB7F894EC91C5
:1006B000E22BEC938FBFF6CF3FB7F89480912203E3
:1006C00090912303A0912403B091250326B5A89B04
:1006D00005C02F3F19F00196A11DB11D3FBFBA2FD4
:1006E000A92F982F8827BC01CD01620F711D811D94
:1006F000911D42E0660F771F881F991F4A95D1F719
:1007000008958F929F92AF92BF92CF92DF92EF9215
:10071000FF924B015C010E945C036B017C010E9413
:100720005C036C197D098E099F09683E7340810541
:100730009105A8F321E0821A9108A108B10888EE7A
:10074000C80E83E0D81EE11CF11C81149104A104A1
:10075000B10429F7FF90EF90DF90CF90BF90AF905A
:100760009F908F9008950895AF92BF92CF92DF929D
:10077000EF92FF920F931F93CF93DF936C017B0156
:100780008B01040F151FEB015E01AE18BF08C017E7
:10079000D10759F06991D601ED91FC910190F0815A
:1007A000E02DC6011995892B79F7C501DF91CF910D
:1007B0001F910F91FF90EF90DF90CF90BF90AF907F
:1007C0000895FC01538D448D252F30E0842F90E057
:1007D000821B930B541710F0CF960895019708953C
:1007E000FC01918D828D981761F0A28DAE0FBF2F05
:1007F000B11D5D968C91928D9F5F9F73928F90E05B
:1008000008958FEF9FEF0895FC01918D828D9817C9
:1008100031F0828DE80FF11D858D90E008958FEF06
:100820009FEF0895FC01918D228D892F90E0805CCF
:100830009F4F821B91098F73992708958EE293E051
:100840000E94120421E0892B09F420E0822F0895F0
:100850008BEC93E00E94120421E0892B09F420E044
:10086000822F0895FC01A48DA80FB92FB11DA35AA2
:10087000BF4F2C91848D90E001968F739927848FC0
:10088000A689B7892C93A089B1898C9183708064E3
:100890008C93938D848D981306C00288F389E02D84
:1008A00080818F7D80830895EF92FF920F931F9335
:1008B000CF93DF93EC0181E0888F9B8D8C8D981313
:1008C0001AC0E889F989808185FF15C09FB7F8941F
:1008D000EE89FF896083E889F9898081837080646B
:1008E00080839FBF81E090E0DF91CF911F910F91B6
:1008F000FF90EF900895F62E0B8D10E00F5F1F4FC5
:100900000F731127E02E8C8D8E110CC00FB607FCD3
:10091000FACFE889F989808185FFF5CFCE010E9461
:100920003204F1CFEB8DEC0FFD2FF11DE35AFF4F99
:10093000F0829FB7F8940B8FEA89FB8980818062EF
:10094000CFCFCF93DF93EC01888D8823B9F0AA89AC
:10095000BB89E889F9898C9185FD03C0808186FD7A
:100960000DC00FB607FCF7CF8C9185FFF2CF8081C9
:1009700085FFEDCFCE010E943204E9CFDF91CF9108
:10098000089580E090E0892B29F00E9428048111CD
:100990000E94000080E090E0892B29F00E941E0454
:1009A00081110E94000080E090E0892B49F080E0F6
:1009B00090E0892B29F00E94000081110E94000024
:1009C00080E090E0892B49F080E090E0892B29F0CD
:1009D0000E94000081110C94000008950F931F9352
:1009E000CF93DF93EC01062F142F60E088890E94DB
:1009F0009F029C858D859CBD8DBD0EBD00000DB4F4
:100A000007FEFDCF8EB51EBD00000DB407FEFDCF65
:100A10001EB561E088890E949F02812FDF91CF91EE
:100A20001F910F91089540E00C94EE0408950F93E8
:100A30001F93CF93DF93EC01E881F9810084F18566
:100A4000E02D1995892BB1F06DE0CE010E941305C0
:100A5000082F60E0CE010E941305182F402F6DE88B
:100A6000CE010E94EE04812F90E0DF91CF911F9183
:100A70000F9108958FEF9FEFF8CFCF93DF93EC01A5
:100A8000E881F9810084F185E02D1995892B69F0C1
:100A90008A8D9B8D01969B8F8A8F60E0CE010E948C
:100AA000130590E0DF91CF9108958FEF9FEFFACF7C
:100AB000CF93DF93EC0163E10E94130590E02A8D50
:100AC0003B8D821B930BDF91CF910895AF92BF9224
:100AD000CF92DF92FF920F931F93CF93DF936C011E
:100AE0005B01EA0162E20E941305F82E90E09C018E
:100AF0002C0F3D1F2F3F310529F020F0CFEFD0E024
:100B0000C81BD90B8501AC0EBD1E0A151B0541F093
:100B1000F80141918F0160E8C6010E94EE04F5CF13
:100B20004C2F4F0D62EAC6010E94EE04CE01DF9108
:100B3000CF911F910F91FF90DF90CF90BF90AF901A
:100B40000895CF93DF931F92CDB7DEB76983DC01A1
:100B5000ED91FC910280F381E02D41E050E0BE0177
:100B60006F5F7F4F19950F90DF91CF910895AF92EE
:100B7000BF92CF92DF92EF92FF920F931F93CF938A
:100B8000DF936B017A01EC01C45EDC4F28813CE00D
:100B9000389F8001399F100D1124A0902905B12C98
:100BA00027FF1FC0FB011182108288818F5F88831D
:100BB00088819801280F311D87FD3A95F6012A1585
:100BC0003B051CF488818C30C4F1808191810496AE
:100BD00080349C4908F473C0F601808191810496A9
:100BE00070C088819801280F311D87FD3A952A151C
:100BF0003B05DCF68881A801480F511D87FD5A95F9
:100C0000FA01EE0FFF1FE40FF51FE756FB4F80813F
:100C100086FFCBCF8881F801E80FF11D87FDFA959B
:100C2000CF01EE0FFF1FE80FF91FE756FB4F808142
:100C300060E08F730E949F02B8CF808191812881EC
:100C4000A801420F511D27FD5A959A01FA01EE0F96
:100C5000FF1FE20FF31FE756FB4F21813281820F06
:100C6000931FF7019183808388819801280F311D9C
:100C700087FD3A95F901EE0FFF1FE20FF31FE756CC
:100C8000FB4F808186FF22C08881080F111D87FDE0
:100C90001A95F801EE0FFF1FE00FF11FE756FB4F0B
:100CA000808161E08F73DF91CF911F910F91FF9051
:100CB000EF90DF90CF90BF90AF900C949F0280E4B4
:100CC0009CE9F701918380838FEF8883DF91CF9137
:100CD0001F910F91FF90EF90DF90CF90BF90AF905A
:100CE000089520912C0330912D032817390771F4B2
:100CF00090912A0380912B03981741F0E0912A03E9
:100D0000F0E0E452FD4F808190E008958FEF9FEF77
:100D10000895EF92FF920F931F93CF93DF93DC011F
:100D20005C96ED90FC905D97E114F10479F481E01C
:100D300090E013969C938E93129790E080E0DF9161
:100D4000CF911F910F91FF90EF9008955196ED91E3
:100D5000FC91529750968C915097982F90950FB781
:100D60005E962C915E97122F127021FD6095F8947B
:100D70002081112319F1282B2083E7012197F1F716
:100D800028E0462F50E0308160FF1AC0382B3083B6
:100D9000E7012197F1F7BA0175956795215089F719
:100DA000112381F08081892380830FBF5C968D9110
:100DB0009C910197F1F781E090E0C1CF2923DCCF2E
:100DC0003923E5CF9081892BEFCF20912C033091EF
:100DD0002D032817390761F480912B0320912A03F2
:100DE00090E0805C9F4F821B91098F739927089533
:100DF00090E080E0089520912C0330912D03281776
:100E00003907B9F490912A0380912B03981789F040
:100E1000E0912A03F0E0E452FD4F808120912A0303
:100E200030E02F5F3F4F2F73332720932A0390E04A
:100E300008958FEF9FEF08952FB7F89480912603C0
:100E400090912703A0912803B09129032FBF80938D
:100E5000E2059093E305A093E405B093E5058AEDE0
:100E600095E00E94FB0697FF26C02FB7F89480916B
:100E7000260390912703A0912803B09129032FBF47
:100E80004091E2055091E3056091E4057091E5051C
:100E9000841B950BA60BB70B4091DE055091DF0527
:100EA0006091E0057091E10584179507A607B707E3
:100EB000B0F28FEF9FEF089590E080E00895CF9318
:100EC000DF93EC0188819981009711F00E946B1AE1
:100ED000198218821D821C821B821A82DF91CF9197
:100EE0000895FC0180819181009711F00C946B1A98
:100EF0000895FB0101900020E9F73197AF01461BEF
:100F0000570BDC01ED91FC910280F381E02D1994E7
:100F10008F929F92AF92BF92EF92FF920F931F9387
:100F2000CF93DF93CDB7DEB7A1970FB6F894DEBFAE
:100F30000FBECDBF7C01FA01CB0119A2223008F40B
:100F40002AE08E010F5D1F4F822E912CB12CA12C17
:100F5000BF01A50194010E94C316F901CA016A30BC
:100F60000CF5605DD8016E938D01232B242B252B6E
:100F700079F790E080E0109721F0BD01C7010E9451
:100F80007907A1960FB6F894DEBF0FBECDBFDF91F3
:100F9000CF911F910F91FF90EF90BF90AF909F90D6
:100FA0008F900895695CDECF2F923F924F925F92AF
:100FB0006F927F928F929F92AF92BF92CF92DF9269
:100FC000EF92FF921F93CF93DF93EC016A017B01B5
:100FD000722EAB019601CB01B6010E94FF1860E5AD
:100FE00072E0811126C046015701E894B7F82FEF4F
:100FF0003FEF4FE75FE7C501B4010E94FF18811181
:101000000CC02FEF3FEF4FE75FE7C501B4010E942F
:101010006D1564E572E0181664F02FEF3FEF4FE7AF
:101020005FE4C701B6010E94E6181816B4F468E53B
:1010300072E0CE01DF91CF911F91FF90EF90DF9092
:10104000CF90BF90AF909F908F907F906F905F9068
:101050004F903F902F900C9479072FEF3FEF4FE781
:101060005FECC701B6010E946D1587FDE0CF20E05F
:1010700030E0A901C701B6010E946D15312C212C69
:1010800087FF0DC0E881F9810190F081E02D6DE2CC
:10109000CE0119951C01F7FAF094F7F8F09410E0DE
:1010A00060E070E080E09FE3711641F020E030E006
:1010B00040E251E40E94D8171F5FF6CFA7019601C6
:1010C0000E94F5162B013C010E9451184B015C0156
:1010D0002AE0BC01A401CE010E9488077C01E20C39
:1010E000F31C1123E1F1C501B4010E9472159B01AB
:1010F000AC01C301B2010E94F4164B015C01E8810E
:10110000F9810190F081E02D6EE2CE011995E80E93
:10111000F91E115020F120E030E040E251E4C50119
:10112000B4010E94D3152B013C010E9451184B01C0
:10113000B12CA12C2AE0B501A401CE010E948807A0
:10114000E80EF91EC501B4010E9472159B01AC01A5
:10115000C301B2010E94F4164B015C01DACFC70152
:10116000DF91CF911F91FF90EF90DF90CF90BF90D4
:10117000AF909F908F907F906F905F904F903F9037
:101180002F9008950F931F93CF93DF93EC01FB01F2
:101190004481558160817181E881F9810280F38108
:1011A000E02D19958C016CE572E0CE010E94790763
:1011B000800F911FDF91CF911F910F910895BC0176
:1011C0008AED95E00C94C2080F931F93CF93DF93A1
:1011D000EC0188819981009759F02A813B8126177B
:1011E000370730F081E0DF91CF911F910F91089583
:1011F0008B016F5F7F4F0E94F41A009759F099831B
:1012000088831B830A832C813D81232B59F7FC01A2
:101210001082E8CF80E0E7CFEF92FF920F931F9309
:10122000CF93DF936115710541F480E0DF91CF9199
:101230001F910F91FF90EF90089541155105B1F066
:101240007B01EC010C811D81040F151FB8010E9468
:10125000E408882351F3288139818C819D81B7016D
:10126000820F931F0E94DE1B1D830C8381E0DECF63
:10127000EF92FF920F931F93CF93DF93EC017B01CB
:101280008A01BA010E94E40881110BC0CE010E94BC
:101290005F07CE01DF91CF911F910F91FF90EF90EB
:1012A00008951D830C83B701888199810E94DE1BFC
:1012B000F0CFFC01118210821382128215821482F7
:1012C000FB0101900020E9F73197AF01461B570B56
:1012D0000C9438091F920F920FB60F9211242F937E
:1012E0003F938F939F93AF93BF93809126039091E9
:1012F0002703A0912803B09129033091210323E013
:10130000230F2D3758F50196A11DB11D2093210300
:101310008093260390932703A0932803B093290377
:101320008091220390912303A0912403B09125037F
:101330000196A11DB11D8093220390932303A093D6
:101340002403B0932503BF91AF919F918F913F915B
:101350002F910F900FBE0F901F90189526E8230F26
:101360000296A11DB11DD2CF1F920F920FB60F9200
:1013700011240BB60F922F933F934F935F936F936C
:101380007F938F939F93AF93BF93EF93FF93E091DE
:101390000E02F0910F021995FF91EF91BF91AF915D
:1013A0009F918F917F916F915F914F913F912F917D
:1013B0000F900BBE0F900FBE0F901F9018951F92AD
:1013C0000F920FB60F9211240BB60F922F933F93EB
:1013D0004F935F936F937F938F939F93AF93BF933D
:1013E000EF93FF93E0910C02F0910D021995FF919C
:1013F000EF91BF91AF919F918F917F916F915F918D
:101400004F913F912F910F900BBE0F900FBE0F90F9
:101410001F9018951F920F920FB60F9211240BB6C2
:101420000F922F933F934F935F936F937F938F937D
:101430009F93AF93BF93EF93FF93E0910202F091DC
:1014400003021995FF91EF91BF91AF919F918F91F9
:101450007F916F915F914F913F912F910F900BBEB4
:101460000F900FBE0F901F9018951F920F920FB6FE
:101470000F9211240BB60F922F933F934F935F93CC
:101480006F937F938F939F93AF93BF93EF93FF934C
:10149000E0910002F09101021995FF91EF91BF9147
:1014A000AF919F918F917F916F915F914F913F91FC
:1014B0002F910F900BBE0F900FBE0F901F9018959D
:1014C0001F920F920FB60F9211240BB60F922F930B
:1014D0003F934F935F936F937F938F939F93AF93BC
:1014E000BF93EF93FF93E0910A02F0910B021995DD
:1014F000FF91EF91BF91AF919F918F917F916F91EC
:101500005F914F913F912F910F900BBE0F900FBEA7
:101510000F901F9018951F920F920FB60F921124E3
:101520000BB60F922F933F934F935F936F937F93DD
:101530008F939F93AF93BF93EF93FF93E091080234
:10154000F09109021995FF91EF91BF91AF919F9191
:101550008F917F916F915F914F913F912F910F905C
:101560000BBE0F900FBE0F901F9018951F920F92F9
:101570000FB60F9211240BB60F922F933F934F93F8
:101580005F936F937F938F939F93AF93BF93EF93EB
:10159000FF93E0910602F09107021995FF91EF91F8
:1015A000BF91AF919F918F917F916F915F914F917B
:1015B0003F912F910F900BBE0F900FBE0F901F9079
:1015C00018951F920F920FB60F9211240BB60F921F
:1015D0002F933F934F935F936F937F938F939F933B
:1015E000AF93BF93EF93FF93E0910402F091050254
:1015F0001995FF91EF91BF91AF919F918F917F913D
:101600006F915F914F913F912F910F900BBE0F9073
:101610000FBE0F901F9018951F920F920FB60F924A
:1016200011240BB60F922F933F934F935F936F93B9
:101630007F938F939F93AF93BF93EF93FF938EE22C
:1016400093E00E943204FF91EF91BF91AF919F917F
:101650008F917F916F915F914F913F912F910F905B
:101660000BBE0F900FBE0F901F9018951F920F92F8
:101670000FB60F9211240BB60F922F938F939F9357
:10168000EF93FF93E0913E03F0913F038081E0915F
:101690004403F091450382FD1DC090818091470372
:1016A0008F5F8F7320914803821741F0E0914703C9
:1016B000F0E0E25DFC4F958F80934703FF91EF913F
:1016C0009F918F912F910F900BBE0F900FBE0F9097
:1016D0001F9018958081F2CF1F920F920FB60F9234
:1016E00011240BB60F922F933F934F935F936F93F9
:1016F0007F938F939F93AF93BF93EF93FF938BEC65
:1017000093E00E943204FF91EF91BF91AF919F91BE
:101710008F917F916F915F914F913F912F910F909A
:101720000BBE0F900FBE0F901F9018951F920F9237
:101730000FB60F9211240BB60F922F938F939F9396
:10174000EF93FF93E091DB03F091DC038081E09164
:10175000E103F091E20382FD1DC090818091E403DA
:101760008F5F8F732091E503821741F0E091E403CE
:10177000F0E0E553FC4F958F8093E403FF91EF91E8
:101780009F918F912F910F900BBE0F900FBE0F90D6
:101790001F9018958081F2CF1F920F920FB60F9273
:1017A00011240BB60F922F933F934F935F936F9338
:1017B0007F938F939F93AF93BF93EF93FF9348E2F1
:1017C00051E064E271E090E080E00E94B705FF9193
:1017D000EF91BF91AF919F918F917F916F915F91A9
:1017E0004F913F912F910F900BBE0F900FBE0F9016
:1017F0001F9018951F920F920FB60F9211240BB6DF
:101800000F922F933F934F935F936F937F938F9399
:101810009F93AF93BF93EF93FF9348EA50E064EA3E
:1018200070E083E090E00E94B705FF91EF91BF91D7
:10183000AF919F918F917F916F915F914F913F9168
:101840002F910F900BBE0F900FBE0F901F90189509
:101850001F920F920FB60F9211240BB60F922F9377
:101860003F934F935F936F937F938F939F93AF9328
:10187000BF93EF93FF9348E950E064E970E082E0A2
:1018800090E00E94B705FF91EF91BF91AF919F91BA
:101890008F917F916F915F914F913F912F910F9019
:1018A0000BBE0F900FBE0F901F9018951F920F92B6
:1018B0000FB60F9211240BB60F922F933F934F93B5
:1018C0005F936F937F938F939F93AF93BF93EF93A8
:1018D000FF9348E850E064E870E081E090E00E9407
:1018E000B705FF91EF91BF91AF919F918F917F913C
:1018F0006F915F914F913F912F910F900BBE0F9081
:101900000FBE0F901F9018951F920F920FB60F9257
:1019100011240BB60F922F933F934F935F936F93C6
:101920007F938F939F93AF93BF93EF93FF93E09138
:101930002C03F0912D03309749F0A685B785858556
:10194000968D91FF16C09C918923B1F4FF91EF9180
:10195000BF91AF919F918F917F916F915F914F91C7
:101960003F912F910F900BBE0F900FBE0F901F90C5
:1019700018959C91892351F7A389B4899C918589F5
:10198000809589238C93868997890197F1F7608DDB
:10199000718DA685B785558538E020E0CB0101978C
:1019A000F1F7822F90E095958795282F4C9145234C
:1019B00009F02068315091F7868D81FD2095809146
:1019C0002B0390E001968F73992730912A033817E3
:1019D00099F0A0912B03B0E0A452BD4F2C938093BB
:1019E0002B03828D938D0197F1F7A389B4898C9194
:1019F0009589892B8C93AACF868D8160868FF1CFB4
:101A0000CF92DF92EF92FF920F931F93E82FF92F5F
:101A100005C0015011092109310961F19081962316
:101A20009417B9F305C0015011092109310911F1C9
:101A3000908196239413F7CFC12CD12CE12CF12C5B
:101A40000AC08FEFC81AD80AE80AF80A0C151D0553
:101A50002E053F0579F080818623841791F36C2D44
:101A60007D2D8E2D9F2D1F910F91FF90EF90DF9078
:101A7000CF90089560E070E080E090E01F910F91BA
:101A8000FF90EF90DF90CF90089510923103109265
:101A9000300348EE53E060E070E04093320350932F
:101AA000330360933403709335038EE192E0909397
:101AB0002F0380932E032DEC30E030933B032093D3
:101AC0003A032CEC30E030933D0320933C0328ECA8
:101AD00030E030933F0320933E0329EC30E0309315
:101AE0004103209340032AEC30E0309343032093DA
:101AF00042032EEC30E030934503209344031092D0
:101B00004703109248031092490310924A0310921F
:101B1000CE031092CD034093CF035093D003609334
:101B2000D1037093D2039093CC038093CB0385ECC5
:101B300090E09093D8038093D70384EC90E0909347
:101B4000DA038093D90380EC90E09093DC038093D8
:101B5000DB0381EC90E09093DE038093DD0382EC65
:101B600090E09093E0038093DF0386EC90E0909305
:101B7000E2038093E1031092E4031092E5031092D4
:101B8000E6031092E70310926C0410926B0480E35A
:101B900092E090936A048093690480E580937504D1
:101BA00081E08093760488E694E0909378048093B3
:101BB00077048AE090E090937A048093790489E036
:101BC00090E090937C0480937B0422E030E030939B
:101BD0007E0420937D0410927F0410928004109262
:101BE0008104109282041092840410928304109253
:101BF0008604109285041092880410928704109233
:101C00008A041092890410926D0410926E0410924E
:101C10006F041092700446E350E050939604409392
:101C200095043093980420939704909394048093A0
:101C3000930480E49EE0AFECB9E180938F0490932D
:101C40009004A0939104B09392040E94A90187E0AC
:101C500090E090938C0480938B0488E090E09093C4
:101C60008E0480938D0461E087E00E942B0360E086
:101C700088E00E942B0380912905803308F046C13B
:101C800091E0980F9093290580932A0590E0FC013C
:101C9000EE0FFF1FE80FF91FE756FB4F88EB9BE0A5
:101CA0009283818310922D0510922E05109230059B
:101CB00010922F05109231051092320510923305C3
:101CC00010923405109235051092370510923605A2
:101CD000109238051092390510923A0510923B0582
:101CE00010923C0510923E0510923D0510923F0562
:101CF0001092400510924105109242051092430542
:101D00001092450510924405109246051092470521
:101D1000109248051092490510924A0510924F05FD
:101D200010925005109251051092520510925305D1
:101D30001092540510925D0510925E0510925F0599
:101D400010926005109261051092620510926B0569
:101D500010926C0510927105109272051092730525
:101D6000109274051092790510927A0510927F05F1
:101D700010928005109281051092820510928705BD
:101D80001092880510928D0510928E0510928F0585
:101D900010929005109295051092960510929B0551
:101DA00010929C0510929D0510929E051092A3051D
:101DB0001092A4051092A9051092AA051092AB05E5
:101DC0001092AC051092B1051092B20582E080939A
:101DD000C2051092C3051092C4051092C505109259
:101DE000C7051092C6051092C9051092C805109239
:101DF000CA051092CB051092CC051092CD05109219
:101E0000CE051092CF051092D0051092D1051092F8
:101E1000D2051092D3051092D4051092D5051092D8
:101E2000D6051092D7051092D8051092D9051092B8
:101E3000B3051092DD051092DC0588EE93E0A0E07A
:101E4000B0E08093DE059093DF05A093E005B093AA
:101E5000E10582E492E09093DB058093DA0510922D
:101E6000F1051092F0051092F3051092F205109210
:101E7000F5051092F4051092F7051092F6056091A1
:101E8000F8056E7F6D7F6093F8056695617081E05F
:101E900068278BE00E949F0261E08BE00E942B0389
:101EA000EDEAF2E0E491E093EA05E7E6F2E0E4919E
:101EB000F0E0EE0FFF1FEE5BFD4F85919491909344
:101EC000EC058093EB0560E08AE00E942B03809193
:101ED000F80581FD04C061E08AE00E949F028AE06B
:101EE0008093E605ECEAF2E0E491E093E705E6E6AC
:101EF000F2E0E491F0E0EE0FFF1FE85DFD4F859109
:101F000094919093E9058093E80508958FEF80936D
:101F10002A05C8CECF93DF93CDB7DEB76E970FB645
:101F2000F894DEBF0FBECDBF789484B5826084BDC7
:101F300084B5816084BD85B5826085BD85B58160CD
:101F400085BD80916E00816080936E00109281004B
:101F50008091810082608093810080918100816006
:101F600080938100809180008160809380008091C7
:101F7000B10084608093B1008091B0008160809353
:101F8000B0008091910082608093910080919100D7
:101F90008160809391008091900081608093900097
:101FA0008091A10082608093A1008091A100816056
:101FB0008093A1008091A00081608093A000809117
:101FC00021018260809321018091210181608093B1
:101FD00021018091200181608093200180917A000D
:101FE000846080937A0080917A00826080937A0086
:101FF00080917A00816080937A0080917A00806875
:1020000080937A001092C1008BEC93E00E947802DA
:1020100060E0809197040E942B038EE293E00E947F
:10202000780280912A05803308F055C010919304FE
:1020300061E0812F0E942B0380912A05282F30E038
:10204000F901EE0FFF1FE20FF31FE756FB4F1F735F
:102050009081907C912B908310922B0510922C05EF
:102060002CE0622F0E942619829FB001112430E0DB
:1020700020E0AB01420F531FFA01EE0FFF1FE40FE8
:10208000F51FE756FB4F908196FD17C02F5F3F4F1E
:102090002C30310571F7813009F01CC2109280009C
:1020A00082E0809381001092850010928400B19AA2
:1020B00080916F00826080936F00E0912A058E2FDF
:1020C00090E0FC01EE0FFF1FE80FF91FE756FB4FF2
:1020D000808180648083C0908F04D0909004E090D1
:1020E0009104F090920461E0809179040E942B03A6
:1020F00061E0809179040E949F0280917B0490911D
:102100007C048F3F9807C9F061E00E942B0360E0D8
:1021100080917B040E949F026AE070E080E090E082
:102120000E94810361E080917B040E949F026AE02B
:1021300070E080E090E00E9481031FB7F8948091E6
:102140002003811127C0E1E9F2E08491E7EDF2E09C
:102150009491E82FF0E0EE0FFF1FE853FE4FA5919A
:10216000B491EC91E92321F461E085E30E949F02A0
:1021700061E085E30E942B038CB580618CBD8CB53A
:1021800080648CBD61E084E30E942B0361E083E303
:102190000E942B03809120038F5F809320031FBF39
:1021A00062E489E694E00E941305823109F082C05E
:1021B00040E861E889E694E00E94EE04C0927F0462
:1021C000D0928004E0928104F0928204460157018B
:1021D000BB0C8808982C54019601A701682D782D16
:1021E000882D982D03E10E949919A12CE8E4BE2EB8
:1021F000F8EECF2EDD24D394E12CF12C00E010E09A
:102200000E943C19122F932E5A016B017C0100E1B0
:102210000E94B419422F66E889E694E00E94EE0419
:10222000212F392DA501B601C70108E00E94B4197C
:10223000422F67E889E694E00E94EE04412F68E8A7
:1022400089E694E00E94EE0440E06EE889E694E0BE
:102250000E94EE0440E06FE889E694E00E94EE04FC
:102260006CE089E694E00E941305482F43606CE817
:1022700089E694E00E94EE0444E066EA89E694E090
:102280000E94EE0444E86DEC89E694E00E94EE04BE
:102290004BE26BE889E694E00E94EE044FE869E8BF
:1022A00089E694E00E94EE0441E861E889E694E062
:1022B0000E94EE040E94A90160E080918B040E94BC
:1022C0009F0283E090E00197F1F761E080918B0439
:1022D0000E949F0283E290E00197F1F760E0809115
:1022E0008B040E949F0280918D0490918E04992707
:1022F000FC01EE55FD4F6491FC01E45AFD4FE49161
:10230000F0E0EE0FFF1FE85DFD4F8591949100E432
:1023100012E42FE030E0462F0E94000D6115710598
:102320008105910529F06F5F7F4F8F4F9F4F9F7001
:102330000E94741526E933E44BE05DE30E94D31557
:1023400020E030E040E05FE30E94D3150E944A188D
:1023500061507109810991096D31710581059105FE
:1023600060F46FE572E08BEC93E00E9479076CE516
:1023700072E08BEC93E00E9479078091950486339C
:1023800008F0865320917B00982F9870277F922B1E
:1023900090937B008770806480937C0080917A00AA
:1023A000806480937A0080917A0086FDFCCF6091F2
:1023B000780070917900072E000C880B990B0E9411
:1023C00074152BE03DE244EB5EE30E94D3156B8B6A
:1023D0007C8B8D8B9E8B0E9415156B017C0164E8B4
:1023E00072E08BEC93E00E947907C701B60123E10C
:1023F00030E040E050E00E9491166F5F7F4F8F4FBA
:102400009F4F0E947415AB01BC0122E08BEC93E05E
:102410000E94D4076CE572E08BEC93E00E94790790
:1024200080912D05882309F481C010922E056091BA
:1024300031057091320580913305909134050E94E9
:10244000721528E23BE64EE65EE40E94D8176B0167
:102450007C0160912F057091300590E080E00E9432
:1024600072159B01AC01C701B6010E94F5162B0144
:102470003C0180913505882321F077FA709477F834
:102480007094609138057091390580913A0590916A
:102490003B050E94721528E23BE64EE65EE40E9490
:1024A000D8176B017C01609136057091370590E07B
:1024B00080E00E9472159B01AC01C701B6010E9429
:1024C000F5169B01AC0180913C0581115058190112
:1024D0008A0135C0823061F410929000809391009F
:1024E000109295001092940088BB80937100E5CD06
:1024F000833069F41092A00082E08093A1001092D2
:10250000A5001092A40089BB80937200D6CD8111E2
:10251000D4CD1092200182E08093210110922501F8
:10252000109224018ABB80937300C7CD412C512C9B
:102530003201212C312C00E010E0A301920162E174
:1025400073E084E992EC0E94F41625E33AEF4EE83A
:102550005CE30E94D3154B015C0125E33AEF4EE8A2
:102560005CE3C301B2010E94D3156B017C01C5017C
:10257000B4010E94F3186F8B788F898F9A8FC701EF
:10258000B6010E94F3186B8F7C8F8D8F9E8FC501D3
:10259000B4010E94D3174B015C012CE83BE042E4FC
:1025A0005FE36B8D7C8D8D8D9E8D0E94D315A50173
:1025B00094010E94D3154B015C01C701B6010E9432
:1025C000D31724E03BEF46E25FE30E94D315A50159
:1025D00094010E94F4166B017C012CE83BE042E47C
:1025E0005FE36F89788D898D9A8D0E94D315A7013D
:1025F00096010E9474176B017C0120E030E0A90174
:102600000E946D1587FF0AC02BED3FE049EC50E4B6
:10261000C701B6010E94F5166B017C0121EE3EE276
:1026200045E652E4C701B6010E94D3156B017C0157
:102630002B893C894D895E890E94F4160E944A18B4
:10264000DB0177FF85C1A859BE4FB7FD16C1A53B79
:10265000B10514F0A4EBB0E080912B05E8E88E2ED4
:10266000912C881A910887FD9394880C991C880CEA
:10267000991C092C000CAA08BB0880912C0528E5A0
:1026800032E0281B310987FD3395220F331F220FBB
:10269000331F032E000C440B550B281939094A0926
:1026A0005B090E94BB1624EB30E040E050E00E9442
:1026B0009116820E931EA41EB51ED40120912A05E8
:1026C000203388F580912B0548E850E0481B5109DC
:1026D00087FD5395CA01880F991F880F991FA81766
:1026E000B9078CF080912C0548E552E0481B510950
:1026F00087FD5395CA01880F991F880F991FA81746
:10270000B9070CF4CD010297880F991F4FB7F894C1
:1027100030E0F901EE0FFF1FE20FF31FE756FB4F0A
:10272000928381834FBF61E089E694E00E941305A4
:102730008370833079F162E189E694E00E941305A9
:1027400083FF06C048E062E989E694E00E94EE0457
:1027500041E861E889E694E00E94EE041092860464
:10276000109285046DE189E694E00E941305482FDC
:102770004E7F6DE989E694E00E94EE0440E06DE84A
:1027800089E694E00E94EE0440E062EA89E694E083
:102790000E94EE0461E972E089E694E00E94790704
:1027A00026E0B301A20189E694E00E94D4076CE917
:1027B00072E089E694E00E94790726E0A101B80161
:1027C00089E694E00E94D40769EA72E089E694E021
:1027D0000E94790722E0B701A60189E694E00E94F1
:1027E000D40743E861E889E694E00E94EE0462E1E0
:1027F00089E694E00E94130583FFF9CF48E062E97F
:1028000089E694E00E94EE0468EE73E080E090E0D8
:102810000E9481038AED95E00E94E506892B81F1F3
:102820001E861D86188A1F861A8A198A50E040E083
:102830006EE572E0CE010D960E9438090E941C07D9
:1028400009891A8997FD22C089831A820F5F1F4F59
:10285000B801CE010D960E94E408882379F32D85F6
:102860003E8589899A89BE016F5F7F4F820F931FD2
:102870000E94DE1B1A8B098BE1CFB0E0A0E0ECCE0A
:102880006EE572E0CE010D960E94590989899A89F8
:10289000892B09F456C0ED85FE858081882309F4D3
:1028A00050C064EB72E0CE0101960E94590949893B
:1028B0005A896D857E85CE0101960E940C09811191
:1028C00004C0CE0101960E945F07BE016F5F7F4F7B
:1028D0008BEC93E00E94C208CE0101960E94710722
:1028E0006DEC72E0CE0107960E94590949895A8918
:1028F0006D857E85CE0107960E940C09811104C06A
:10290000CE0107960E945F071A8219821C821B82E1
:102910001E821D826F8178856115710531F04B85AE
:102920005C85CE0101960E943809CE0101960E9475
:10293000DF08CE0101960E947107CE0107960E9422
:102940007107CE010D960E9471070E94C104B4CC9C
:10295000603272400CF0B2CE7ACE82E492E0909374
:10296000DB058093DA0580912C0390912D038A5D1D
:10297000954071F4E091ED05F091EE059081809124
:10298000EF0580958923808310922D0310922C03EC
:1029900008958F929F92AF92BF92CF92DF92EF9263
:1029A000FF92CF93DF93EC01688179818A819B81CB
:1029B000611571058105910521F464E279ED8BE5DE
:1029C00097E02DE133EF41E050E00E94911649017C
:1029D0005A019B01AC01A7EAB1E40E94B0166B0159
:1029E0007C01ACEEB4EFA50194010E94BE16C60EA8
:1029F000D71EE81EF91EF7FE06C081E0C81AD108EE
:102A0000E10880E8F80AC882D982EA82FB82C7011D
:102A1000B6019F77DF91CF91FF90EF90DF90CF903D
:102A2000BF90AF909F908F9008958F929F92AF929A
:102A3000BF92CF92DF92EF92FF926091100270915D
:102A400011028091120290911302611571058105A6
:102A5000910521F464E279ED8BE597E02DE133EF08
:102A600041E050E00E94911649015A019B01AC01DE
:102A7000A7EAB1E40E94B0166B017C01ACEEB4EFA2
:102A8000A50194010E94BE16C60ED71EE81EF91EAF
:102A9000F7FE06C081E0C81AD108E10880E8F80A0C
:102AA000C0921002D0921102E0921202F092130230
:102AB000C701B6019F77FF90EF90DF90CF90BF9056
:102AC000AF909F908F9008956093100270931102C1
:102AD000809312029093130208950E94AF1508F498
:102AE00081E00895E89409C097FB3EF490958095A5
:102AF000709561957F4F8F4F9F4F9923A9F0F92FC4
:102B000096E9BB279395F695879577956795B79541
:102B1000F111F8CFFAF4BB0F11F460FF1BC06F5F27
:102B20007F4F8F4F9F4F16C0882311F096E911C039
:102B3000772321F09EE8872F762F05C0662371F05A
:102B400096E8862F70E060E02AF09A95660F771F6E
:102B5000881FDAF7880F9695879597F90895990F4A
:102B60000008550FAA0BE0E8FEEF16161706E80757
:102B7000F907C0F012161306E407F50798F0621B78
:102B8000730B840B950B39F40A2661F0232B242B4D
:102B9000252B21F408950A2609F4A140A6958FEF6C
:102BA000811D811D08950E94E6150C9457160E9400
:102BB000491638F00E94501620F0952311F00C941D
:102BC00040160C94461611240C948B160E9468161D
:102BD00070F3959FC1F3950F50E0551F629FF00170
:102BE000729FBB27F00DB11D639FAA27F00DB11D89
:102BF000AA1F649F6627B00DA11D661F829F222712
:102C0000B00DA11D621F739FB00DA11D621F839F98
:102C1000A00D611D221F749F3327A00D611D231F6E
:102C2000849F600D211D822F762F6A2F11249F57BC
:102C300050409AF0F1F088234AF0EE0FFF1FBB1FBF
:102C4000661F771F881F91505040A9F79E3F51057E
:102C500080F00C9440160C948B165F3FE4F3983E82
:102C6000D4F3869577956795B795F795E7959F5F28
:102C7000C1F7FE2B880F911D9695879597F90895BA
:102C800097F99F6780E870E060E008959FEF80EC1F
:102C9000089500240A9416161706180609060895C2
:102CA00000240A9412161306140605060895092E28
:102CB0000394000C11F4882352F0BB0F40F4BF2B97
:102CC00011F460FF04C06F5F7F4F8F4F9F4F0895D7
:102CD00057FD9058440F551F59F05F3F71F04795CD
:102CE000880F97FB991F61F09F3F79F087950895B2
:102CF000121613061406551FF2CF4695F1DF08C0D1
:102D0000161617061806991FF1CF869571056105ED
:102D100008940895E894BB2766277727CB0197F995
:102D20000895052E97FB1EF400940E94A81657FDE7
:102D300007D00E94C31607FC03D04EF40C94A816CB
:102D400050954095309521953F4F4F4F5F4F0895D7
:102D500090958095709561957F4F8F4F9F4F089507
:102D60000E94E516A59F900DB49F900DA49F800D25
:102D7000911D11240895B7FF0C94B0160E94B0164F
:102D8000821B930B0895A1E21A2EAA1BBB1BFD0107
:102D90000DC0AA1FBB1FEE1FFF1FA217B307E4073A
:102DA000F50720F0A21BB30BE40BF50B661F771F92
:102DB000881F991F1A9469F7609570958095909572
:102DC0009B01AC01BD01CF010895A29FB001B39F4B
:102DD000C001A39F700D811D1124911DB29F700D24
:102DE000811D1124911D08955058BB27AA270E94C8
:102DF0000C170C9457160E94491638F00E94501672
:102E000020F039F49F3F19F426F40C9446160EF482
:102E1000E095E7FB0C944016E92F0E94681658F3E2
:102E2000BA17620773078407950720F079F4A6F5AF
:102E30000C948A160EF4E0950B2EBA2FA02D0B01E0
:102E4000B90190010C01CA01A0011124FF27591BEF
:102E500099F0593F50F4503E68F11A16F040A22FF5
:102E6000232F342F4427585FF3CF46953795279566
:102E7000A795F0405395C9F77EF41F16BA0B620B65
:102E8000730B840BBAF09150A1F0FF0FBB1F661FAC
:102E9000771F881FC2F70EC0BA0F621F731F841FEF
:102EA00048F4879577956795B795F7959E3F08F015
:102EB000B0CF9395880F08F09927EE0F97958795D7
:102EC00008950E94491660F080E891E009F49EEFB1
:102ED0000E94501628F040E851E071F45EEF0CC0FB
:102EE0000C9446160C948A16E92FE0780E94681616
:102EF00040F3092E052AB1F326173707480759076B
:102F000038F00E2E07F8E02569F0E025E0640AC0ED
:102F1000EF6307F8009407FADB01B9019D01DC01BA
:102F2000CA01AD01EF930E94EF170E9457160E944D
:102F3000A4175F91552339F02BED3FE049E450FD94
:102F400049EC0C94F5160895DF93DD27B92FBF7770
:102F500040E85FE31616170648075B0718F4D92FF9
:102F60000E94EB189F938F937F936F930E94FB189F
:102F7000E4EEF0E00E9480180E9457162F913F91D6
:102F80004F915F910E94E615DD2351F09058A2EA1F
:102F90002AED3FE049EC5FE3D0785D270E940C17F3
:102FA000DF910C9457160E94A918E3950C94D2183F
:102FB0000E94EC170C9457160E94501658F00E946D
:102FC000491640F029F45F3F29F00C944016511146
:102FD0000C948B160C9446160E94681668F399237D
:102FE000B1F3552391F3951B550BBB27AA27621705
:102FF0007307840738F09F5F5F4F220F331F441F12
:10300000AA1FA9F335D00E2E3AF0E0E832D0915045
:103010005040E695001CCAF72BD0FE2F29D0660F32
:10302000771F881FBB1F261737074807AB07B0E875
:1030300009F0BB0B802DBF01FF2793585F4F3AF07B
:103040009E3F510578F00C9440160C948B165F3F10
:10305000E4F3983ED4F3869577956795B795F79501
:103060009F5FC9F7880F911D9695879597F90895E9
:10307000E1E0660F771F881FBB1F62177307840785
:10308000BA0720F0621B730B840BBA0BEE1F88F794
:10309000E09508950E9451186894B1110C948B1614
:1030A00008950E94701688F09F5798F0B92F9927BD
:1030B000B751B0F0E1F0660F771F881F991F1AF023
:1030C000BA95C9F714C0B13091F00E948A16B1E0E8
:1030D00008950C948A16672F782F8827B85F39F0E7
:1030E000B93FCCF3869577956795B395D9F73EF4BC
:1030F00090958095709561957F4F8F4F9F4F089564
:10310000DF93CF931F930F93FF92EF92DF927B0198
:103110008C01689406C0DA2EEF010E94E615FE01CC
:10312000E894A5912591359145915591A6F3EF012C
:103130000E940C17FE019701A801DA9469F7DF904D
:10314000EF90FF900F911F91CF91DF9108950C9414
:1031500046160E947016D8F3E894E0E0BB279F570C
:10316000F0F02AED3FE049EC06C0EE0FBB0F661F02
:10317000771F881F28F0B23A62077307840728F088
:10318000B25A620B730B840BE3959A9572F78038F1
:1031900030F49A95BB0F661F771F881FD2F79048AF
:1031A0000C940619EF93E0FF07C0A2EA2AED3FE076
:1031B00049EC5FEB0E940C170E9457160F90039486
:1031C00001FC9058E1E1F1E00C9412190E94AF1556
:1031D00008F48FEF08959B01AC0160E070E080E897
:1031E0009FE30C94D8179F930E94A9180F9007FC97
:1031F000EE5F0C94D2189B01AC010C94D3150E9485
:10320000AF15880B990B08959F3F31F0915020F432
:10321000879577956795B795880F911D96958795B2
:1032200097F908959F938F937F936F93FF93EF93F5
:103230009B01AC010E94D315EF91FF910E94801871
:103240002F913F914F915F910C94D315991B79E089
:1032500004C0991F961708F0961B881F7A95C9F726
:1032600080950895EE0FFF1F881F8BBF0790F69182
:10327000E02D1994689401C0E8948F929F92CF93A7
:10328000DF930E944819DF91CF919F908F9008950E
:1032900088249924F401E401B0E49F93AA279A15A5
:1032A0008B049C04ED05FE05CF05D007A10798F41B
:1032B000AD2FDC2FCF2FFE2FE92D982C892E982FA4
:1032C000872F762F652F542F432F322F2227B85068
:1032D00031F7BF9127C01B2EBF91BB27220F331F91
:1032E000441F551F661F771F881F991F881C991C34
:1032F000EE1FFF1FCC1FDD1FAA1FBB1F8A149B04DC
:10330000EC05FD05CE05DF05A007B10748F08A18DA
:103310009B08EC09FD09CE09DF09A00BB10B216068
:103320001A94E1F62EF49401AF01BE01CD01000C18
:103330000895002E083090F0982F872F762F652F54
:10334000542F432F322F22270850F4CF220F331F40
:10335000441F551F661F771F881F991F0A95B2F7D4
:10336000002D089597FD1094002E083098F0085015
:10337000232F342F452F562F672F782F892F912DEC
:10338000F4CF1594979587957795679557954795B9
:10339000379527950A95AAF71124002D08950F93C4
:1033A0001F93CF93DF938230910510F482E090E079
:1033B000E091FB05F091FC0530E020E0B0E0A0E0FA
:1033C000309799F42115310509F44AC0281B390BAF
:1033D00024303105D8F58A819B816115710589F109
:1033E000FB0193838283FE0111C0408151810281E0
:1033F000138148175907E0F04817590799F41097B7
:1034000061F012960C93129713961C933296CF018B
:10341000DF91CF911F910F9108950093FB051093B9
:10342000FC05F4CF2115310551F04217530738F050
:10343000A901DB019A01BD01DF01F801C1CFEF0154
:10344000F9CF9093FC058093FB05CDCFFE01E20FF1
:10345000F31F819391932250310939832883D7CF69
:103460002091F9053091FA05232B41F420911602A1
:10347000309117023093FA052093F9052091140238
:10348000309115022115310541F42DB73EB7409119
:10349000180250911902241B350BE091F905F091A7
:1034A000FA05E217F307A0F42E1B3F0B2817390784
:1034B00078F0AC014E5F5F4F2417350748F04E0F90
:1034C0005F1F5093FA054093F905819391939FCF25
:1034D000F0E0E0E09CCFCF93DF930097E9F0FC01B0
:1034E000329713821282A091FB05B091FC05ED0189
:1034F00030E020E01097A1F420813181820F931FEA
:103500002091F9053091FA052817390709F061C0B3
:10351000F093FA05E093F905DF91CF910895EA0160
:10352000CE17DF07E8F54A815B819E014115510501
:10353000B1F7E901FB83EA8349915991C40FD51F83
:10354000EC17FD0761F4808191810296840F951F2D
:10355000E90199838883828193819B838A83F0E048
:10356000E0E012968D919C9113970097B9F52D91FB
:103570003C911197CD010296820F931F2091F9057E
:103580003091FA052817390739F6309751F510921E
:10359000FC051092FB05B093FA05A093F905BCCF8A
:1035A000D383C28340815181840F951FC817D907E7
:1035B00061F44E5F5F4F88819981480F591F518395
:1035C00040838A819B81938382832115310509F091
:1035D000B0CFF093FC05E093FB059ECFFD01DC012D
:1035E000C0CF13821282D7CF4F925F926F927F9299
:1035F0008F929F92AF92BF92CF92DF92EF92FF9203
:103600000F931F93CF93DF938C01009799F4CB0115
:10361000DF91CF911F910F91FF90EF90DF90CF90AE
:10362000BF90AF909F908F907F906F905F904F90E2
:103630000C94CF19FC01E60FF71F9C0122503109B1
:10364000E217F30708F4AEC0D901CD91DC911197D0
:10365000C617D70720F1C530D10578F0CE01049701
:103660008617970750F0C61BD70B2297C193D193AB
:103670006D937C93CF010E946B1AC801DF91CF91AB
:103680001F910F91FF90EF90DF90CF90BF90AF9080
:103690009F908F907F906F905F904F9008955B0107
:1036A000AC1ABD0A4C018C0E9D1EA091FB05B09179
:1036B000FC05512C412CF12CE12C109731F5809117
:1036C000F9059091FA058815990509F05CC0461630
:1036D000570608F058C08091140290911502009787
:1036E00041F48DB79EB74091180250911902841B86
:1036F000950BE817F90708F055C0F093FA05E09329
:10370000F905F90171836083B8CF8D919C91119770
:1037100012966C90129713967C901397A815B90582
:1037200059F56C0142E0C40ED11CCA14DB0420F12F
:10373000AC014A195B09DA011296159780F0628292
:10374000738251834083D9016D937C93E114F1041A
:1037500071F0D7011396FC93EE9312978ECF2296B9
:103760008C0F9D1FF90191838083F301EFCFF093BC
:10377000FC05E093FB0581CF4816590608F42C019F
:103780007D01D3019ACFCB010E94CF197C01009714
:1037900049F0AE01B8010E94D51BC8010E946B1A06
:1037A00087016BCF10E000E068CFFB01DC0102C0B5
:1037B00001900D9241505040D8F70895FB01DC0173
:1037C00001900D920020E1F7089511E0C5E7D1E0E6
:1037D00000E006C0802FFE010E9432192196011DD3
:0E37E000C637D10780E00807A9F7F894FFCF9D
:1037EE00B303B303B303B303B303B303B303B3031B
:1037FE00010000000000FD058000000000005404E0
:10380E00B403E103A1041204F00304040000000059
:10381E00A10566055C07160558053D051705000050
:10382E0000008906B4035C071605E506FB06710663
:10383E006E616E00696E66006F7666000D0A004F4F
:10384E0062737461636C652064657465637465642A
:10385E00212041646A757374696E6720636F757297
:10386E0073652E0057696E642053706565643A2047
:10387E00004C617469747564653A2000204C6F6E5B
:10388E006769747564653A20002042656172696EDD
:10389E00673A2000526563656976656420766961D2
:1038AE0020426C7565746F6F74683A200041636BCB
:0C38BE006E6F776C65646765643A2000EB
:00000001FF
