:100000000C945E010C944D080C9422080C94F70794
:100010000C94CC070C94A1070C9476070C944B0716
:100020000C9420070C948F010C948F010C948F0179
:100030000C948F010C948F010C948F010C948F0100
:100040000C948F010C94C2090C948F010C948F01B5
:100050000C948F010C948F010C948F010C94D60694
:100060000C948F010C9402090C94D8080C948F0105
:100070000C948F010C948F010C948F010C948F01C0
:100080000C9494090C948F010C948F010C948F01A3
:100090000C94A2080C9478080C948F010C948F0196
:1000A0000C948F010C948F010C9466090C948F01B1
:1000B0000C948F010C948F010C948F010C943809CF
:1000C0000C948F010C948F010C948F010C948F0170
:1000D0000C948F010C948F010C948F010C948F0160
:1000E0000C948F01084AD73B3BCE016E84BCBFFD08
:1000F000C12F3D6C74319ABD56833DDA3D00C77FF8
:1001000011BED9E4BB4C3E916BAAAABE0000008090
:100110003F05A84CCDB2D44EB93836A9020C50B91F
:10012000918688083CA6AAAA2ABE000000803F004B
:100130000C94ED010C94BA030C942B030C94FA026A
:100140000C94E8010C940E020C9409030C94CD025B
:100150000C947F040C9418020C9422020C94260236
:100160000C94FF010C9430040C9434020C94CC02D7
:100170000C9414020C943E020C94BA040C946D037B
:100180000C9407020C94F0090C9403020C942F04B5
:100190000C943A020C94D0040C9430020C940B0290
:1001A0000C9471040C9456040C942C020C941E02B2
:1001B0000C941D0300002100240027002A002D00BC
:1001C0003000330001010000040107010A010000B2
:1001D0002200250028002B002E00310034000201EF
:1001E0000000050108010B010505050507050808C4
:1001F0000808020202020A0A0808040404040101B1
:1002000001010101010103030303030303030407C5
:1002100007070C0C0C0C0C0C0C0C0202020206065C
:100220000606060606060B0B0B0B0B0B0B0B01024F
:1002300010202008081020401020408002010201F8
:1002400008040201010204081020408080402010B0
:100250000804020180040201804020100804020109
:100260000804020101020408102040800102040871
:100270001020408000000A0B02090C0D0E08070335
:100280000401000000000000000000000000000069
:10029000000000000000000000000000000000005E
:1002A000121110000000000000000000000000001B
:1002B00000000000000000000000F00911241FBE33
:1002C000CFEFD1E2DEBFCDBF00E00CBF12E0A0E077
:1002D000B2E0E0EEF9E200E00BBF02C007900D9241
:1002E000A837B107D9F725E0A8E7B2E001C01D9211
:1002F000AE32B207E1F711E0CEE5D1E000E006C092
:1003000021970109802FFE010E945114CD35D1079C
:1003100080E00807A9F70E94B30B0C94EE140C942C
:100320000000FC01A089B18982E08C93A485B58589
:100330001C92A685B7858FEC8C93108EA489B58905
:1003400086E08C93A289B3898C9180618C93A28979
:10035000B3898C9188608C93A289B3898C918068D1
:100360008C930288F389E02D80818F7D80830895AE
:10037000282F30E0F901EC58FD4F9491F901E25D2E
:10038000FD4F449128513E4FF9012491222309F455
:1003900035C0992311F191509231F8F4E92FF0E032
:1003A0008827EA52FE4F8F4F0C94511407020B021C
:1003B000E801FF010302ED010E02140218021E0201
:1003C000220226022C023002ED0134023A023E02E1
:1003D000809180008F7780938000E22FF0E0EE0F15
:1003E000FF1FE253FE4FA591B4918FB7F894EC91A3
:1003F000611148C040954E234C938FBF0895809162
:1004000080008F7DE8CF80918000877FE4CF84B526
:100410008F7784BDE2CF84B58F7DFBCF8091B00014
:100420008F778093B000D9CF8091B0008F7DF9CFC6
:10043000809190008F7780939000CFCF8091900033
:100440008F7DF9CF80919000877FF5CF8091A000BC
:100450008F778093A000C1CF8091A0008F7DF9CFCE
:100460008091A000877FF5CF809120018F778093C6
:100470002001B3CF809120018F7DF9CF80912001A1
:10048000877FF5CF4E2BB8CFCF93DF9390E0FC0161
:10049000E25DFD4F249188519E4FFC018491882399
:1004A000D1F090E0880F991FFC01EC54FE4FA5910C
:1004B000B491FC01E253FE4FC591D49161110EC07D
:1004C0009FB7F8948C91E22FE0958E238C9328812E
:1004D000E223E8839FBFDF91CF9108958FB7F8940F
:1004E000EC91E22BEC938FBFF6CF3FB7F89480915D
:1004F000820290918302A0918402B091850226B578
:10050000A89B05C02F3F19F00196A11DB11D3FBF4B
:10051000BA2FA92F982F8827BC01CD01620F711D1A
:10052000811D911D42E0660F771F881F991F4A9514
:10053000D1F708958F929F92AF92BF92CF92DF92A0
:10054000EF92FF924B015C010E9475026B017C01EE
:100550000E9475026C197D098E099F09683E7340DF
:1005600081059105A8F321E0821A9108A108B1083C
:1005700088EEC80E83E0D81EE11CF11C81149104A2
:10058000A104B10429F7FF90EF90DF90CF90BF90C6
:10059000AF909F908F9008950895AF92BF92CF92A1
:1005A000DF92EF92FF920F931F93CF93DF936C0133
:1005B0007B018B01040F151FEB015E01AE18BF0814
:1005C000C017D10759F06991D601ED91FC910190C6
:1005D000F081E02DC6011995892B79F7C501DF91CE
:1005E000CF911F910F91FF90EF90DF90CF90BF9030
:1005F000AF900895FC01538D448D252F30E0842F5A
:1006000090E0821B930B541710F0CF96089501973A
:100610000895FC01918D828D981761F0A28DAE0F27
:10062000BF2FB11D5D968C91928D9F5F9F73928FAE
:1006300090E008958FEF9FEF0895FC01918D828DDA
:10064000981731F0828DE80FF11D858D90E00895A7
:100650008FEF9FEF0895FC01918D228D892F90E0FF
:10066000805C9F4F821B91098F739927089586E8BC
:1006700092E00E942B0321E0892B09F420E0822FD5
:10068000089583E293E00E942B0321E0892B09F473
:1006900020E0822F0895FC01A48DA80FB92FB11D71
:1006A000A35ABF4F2C91848D90E001968F739927A8
:1006B000848FA689B7892C93A089B1898C91837086
:1006C00080648C93938D848D981306C00288F3897F
:1006D000E02D80818F7D80830895EF92FF920F93AC
:1006E0001F93CF93DF93EC0181E0888F9B8D8C8DDE
:1006F00098131AC0E889F989808185FF15C09FB7D2
:10070000F894EE89FF896083E889F9898081837094
:10071000806480839FBF81E090E0DF91CF911F9143
:100720000F91FF90EF900895F62E0B8D10E00F5F64
:100730001F4F0F731127E02E8C8D8E110CC00FB63A
:1007400007FCFACFE889F989808185FFF5CFCE01D2
:100750000E944B03F1CFEB8DEC0FFD2FF11DE35AFF
:10076000FF4FF0829FB7F8940B8FEA89FB89808155
:100770008062CFCFCF93DF93EC01888D8823B9F0CF
:10078000AA89BB89E889F9898C9185FD03C080819C
:1007900086FD0DC00FB607FCF7CF8C9185FFF2CF19
:1007A000808185FFEDCFCE010E944B03E9CFDF9121
:1007B000CF91089580E090E0892B29F00E944103B9
:1007C00081110E94000080E090E0892B29F00E94B6
:1007D000370381110E94000080E090E0892B49F0EE
:1007E00080E090E0892B29F00E94000081110E9496
:1007F000000080E090E0892B49F080E090E0892BB8
:1008000029F00E94000081110C94000008950F93BC
:100810001F93CF93DF93EC01062F142F60E088899C
:100820000E94B8019C858D859CBD8DBD0EBD0000CC
:100830000DB407FEFDCF8EB51EBD00000DB407FE42
:10084000FDCF1EB561E088890E94B801812FDF913C
:10085000CF911F910F91089540E00C9407040895E3
:100860000F931F93CF93DF93EC01E881F98100840C
:10087000F185E02D1995892BB1F06DE0CE010E9434
:100880002C04082F60E0CE010E942C04182F402F6A
:100890006DE8CE010E940704812F90E0DF91CF9197
:1008A0001F910F9108958FEF9FEFF8CFCF93DF93B4
:1008B000EC01E881F9810084F185E02D1995892BFF
:1008C00069F08A8D9B8D01969B8F8A8F60E0CE01A7
:1008D0000E942C0490E0DF91CF9108958FEF9FEF5D
:1008E000FACFCF93DF93EC0163E10E942C0490E0F8
:1008F0002A8D3B8D821B930BDF91CF910895AF9290
:10090000BF92CF92DF92FF920F931F93CF93DF930B
:100910006C015B01EA0162E20E942C04F82E90E077
:100920009C012C0F3D1F2F3F310529F020F0CFEF08
:10093000D0E0C81BD90B8501AC0EBD1E0A151B05E6
:1009400041F0F80141918F0160E8C6010E9407045F
:10095000F5CF4C2F4F0D62EAC6010E940704CE016D
:10096000DF91CF911F910F91FF90DF90CF90BF90BB
:10097000AF900895CF93DF931F92CDB7DEB7698311
:10098000DC01ED91FC910280F381E02D41E050E02B
:10099000BE016F5F7F4F19950F90DF91CF91089542
:1009A00090E080E00895AF92BF92CF92DF92EF92F5
:1009B000FF920F931F93CF93DF936B017A01EC01AA
:1009C000C858DD4F28813CE0389F8001399F100DC9
:1009D0001124A0907D04B12C27FF1FC0FB011182C0
:1009E000108288818F5F888388819801280F311D4C
:1009F00087FD3A95F6012A153B051CF488818C3059
:100A0000C4F180819181049680349C4908F473C0BC
:100A1000F60180819181049670C088819801280F29
:100A2000311D87FD3A952A153B05DCF68881A80122
:100A3000480F511D87FD5A95FA01EE0FFF1FE40F75
:100A4000F51FE351FC4F808186FFCBCF8881F801F1
:100A5000E80FF11D87FDFA95CF01EE0FFF1FE80F9C
:100A6000F91FE351FC4F808160E08F730E94B80151
:100A7000B8CF808191812881A801420F511D27FDA7
:100A80005A959A01FA01EE0FFF1FE20FF31FE3518F
:100A9000FC4F21813281820F931FF7019183808364
:100AA00088819801280F311D87FD3A95F901EE0FD5
:100AB000FF1FE20FF31FE351FC4F808186FF22C02E
:100AC0008881080F111D87FD1A95F801EE0FFF1F91
:100AD000E00FF11FE351FC4F808161E08F73DF91E4
:100AE000CF911F910F91FF90EF90DF90CF90BF902B
:100AF000AF900C94B80180E49CE9F7019183808366
:100B00008FEF8883DF91CF911F910F91FF90EF902E
:100B1000DF90CF90BF90AF900895FB01019000202F
:100B2000E9F73197AF01461B570BDC01ED91FC91C2
:100B30000280F381E02D19948F929F92AF92BF9221
:100B4000EF92FF920F931F93CF93DF93CDB7DEB752
:100B5000A1970FB6F894DEBF0FBECDBF7C01FA019E
:100B6000CB0119A2223008F42AE08E010F5D1F4F3D
:100B7000822E912CB12CA12CBF01A50194010E94C1
:100B8000E211F901CA016A300CF5605DD8016E937B
:100B90008D01232B242B252B79F790E080E01097F3
:100BA00021F0BD01C7010E948D05A1960FB6F894F2
:100BB000DEBF0FBECDBFDF91CF911F910F91FF9090
:100BC000EF90BF90AF909F908F900895695CDECFBB
:100BD0002F923F924F925F926F927F928F929F924D
:100BE000AF92BF92CF92DF92EF92FF921F93CF937B
:100BF000DF93EC016A017B01722EAB019601CB0100
:100C0000B6010E941E1468E372E0811126C04601FD
:100C10005701E894B7F82FEF3FEF4FE75FE7C501C3
:100C2000B4010E941E1481110CC02FEF3FEF4FE75B
:100C30005FE7C501B4010E948C106CE372E01816E6
:100C400064F02FEF3FEF4FE75FE4C701B6010E946A
:100C500005141816B4F460E472E0CE01DF91CF9170
:100C60001F91FF90EF90DF90CF90BF90AF909F903B
:100C70008F907F906F905F904F903F902F900C944B
:100C80008D052FEF3FEF4FE75FECC701B6010E94E4
:100C90008C1087FDE0CF20E030E0A901C701B6014C
:100CA0000E948C10312C212C87FF0DC0E881F98126
:100CB0000190F081E02D6DE2CE0119951C01F7FA4B
:100CC000F094F7F8F09410E060E070E080E09FE3CB
:100CD000711641F020E030E040E251E40E94F7124A
:100CE0001F5FF6CFA70196010E9414122B013C0151
:100CF0000E9470134B015C012AE0BC01A401CE01EB
:100D00000E949C057C01E20CF31C1123E1F1C5015A
:100D1000B4010E9491109B01AC01C301B2010E9479
:100D200013124B015C01E881F9810190F081E02D03
:100D30006EE2CE011995E80EF91E115020F120E067
:100D400030E040E251E4C501B4010E94F2102B01F1
:100D50003C010E9470134B01B12CA12C2AE0B5017B
:100D6000A401CE010E949C05E80EF91EC501B40144
:100D70000E9491109B01AC01C301B2010E941312A9
:100D80004B015C01DACFC701DF91CF911F91FF903A
:100D9000EF90DF90CF90BF90AF909F908F907F901B
:100DA0006F905F904F903F902F9008951F920F92F9
:100DB0000FB60F9211242F933F938F939F93AF936E
:100DC000BF9380917E0290917F02A0918002B091AA
:100DD000810230917D0223E0230F2D3758F50196D3
:100DE000A11DB11D20937D0280937E0290937F020E
:100DF000A0938002B093810280918202909183023D
:100E0000A0918402B09185020196A11DB11D80932D
:100E1000820290938302A0938402B0938502BF91D3
:100E2000AF919F918F913F912F910F900FBE0F9097
:100E30001F90189526E8230F0296A11DB11DD2CF51
:100E40001F920F920FB60F9211240BB60F922F9391
:100E50003F934F935F936F937F938F939F93AF9342
:100E6000BF93EF93FF93E0910E02F0910F0219955B
:100E7000FF91EF91BF91AF919F918F917F916F9172
:100E80005F914F913F912F910F900BBE0F900FBE2E
:100E90000F901F9018951F920F920FB60F9211246A
:100EA0000BB60F922F933F934F935F936F937F9364
:100EB0008F939F93AF93BF93EF93FF93E0910C02B7
:100EC000F0910D021995FF91EF91BF91AF919F9114
:100ED0008F917F916F915F914F913F912F910F90E3
:100EE0000BBE0F900FBE0F901F9018951F920F9280
:100EF0000FB60F9211240BB60F922F933F934F937F
:100F00005F936F937F938F939F93AF93BF93EF9371
:100F1000FF93E0910202F09103021995FF91EF9186
:100F2000BF91AF919F918F917F916F915F914F9101
:100F30003F912F910F900BBE0F900FBE0F901F90FF
:100F400018951F920F920FB60F9211240BB60F92A5
:100F50002F933F934F935F936F937F938F939F93C1
:100F6000AF93BF93EF93FF93E0910002F0910102E2
:100F70001995FF91EF91BF91AF919F918F917F91C3
:100F80006F915F914F913F912F910F900BBE0F90FA
:100F90000FBE0F901F9018951F920F920FB60F92D1
:100FA00011240BB60F922F933F934F935F936F9340
:100FB0007F938F939F93AF93BF93EF93FF93E091B2
:100FC0000A02F0910B021995FF91EF91BF91AF9139
:100FD0009F918F917F916F915F914F913F912F9151
:100FE0000F900BBE0F900FBE0F901F9018951F9281
:100FF0000F920FB60F9211240BB60F922F933F93BF
:101000004F935F936F937F938F939F93AF93BF9310
:10101000EF93FF93E0910802F09109021995FF9177
:10102000EF91BF91AF919F918F917F916F915F9160
:101030004F913F912F910F900BBE0F900FBE0F90CD
:101040001F9018951F920F920FB60F9211240BB696
:101050000F922F933F934F935F936F937F938F9351
:101060009F93AF93BF93EF93FF93E0910602F091AC
:1010700007021995FF91EF91BF91AF919F918F91C9
:101080007F916F915F914F913F912F910F900BBE88
:101090000F900FBE0F901F9018951F920F920FB6D2
:1010A0000F9211240BB60F922F933F934F935F93A0
:1010B0006F937F938F939F93AF93BF93EF93FF9320
:1010C000E0910402F09105021995FF91EF91BF9113
:1010D000AF919F918F917F916F915F914F913F91D0
:1010E0002F910F900BBE0F900FBE0F901F90189571
:1010F0001F920F920FB60F9211240BB60F922F93DF
:101100003F934F935F936F937F938F939F93AF938F
:10111000BF93EF93FF9386E892E00E944B03FF9109
:10112000EF91BF91AF919F918F917F916F915F915F
:101130004F913F912F910F900BBE0F900FBE0F90CC
:101140001F9018951F920F920FB60F9211240BB695
:101150000F922F938F939F93EF93FF93E0919602BB
:10116000F09197028081E0919C02F0919D0282FDB6
:101170001DC0908180919F028F5F8F732091A0028C
:10118000821741F0E0919F02F0E0EA57FD4F958F02
:1011900080939F02FF91EF919F918F912F910F90DC
:1011A0000BBE0F900FBE0F901F9018958081F2CF4D
:1011B0001F920F920FB60F9211240BB60F922F931E
:1011C0003F934F935F936F937F938F939F93AF93CF
:1011D000BF93EF93FF9383E293E00E944B03FF9151
:1011E000EF91BF91AF919F918F917F916F915F919F
:1011F0004F913F912F910F900BBE0F900FBE0F900C
:101200001F9018951F920F920FB60F9211240BB6D4
:101210000F922F938F939F93EF93FF93E09133035C
:10122000F09134038081E0913903F0913A0382FD1B
:101230001DC0908180913C038F5F8F7320913D038F
:10124000821741F0E0913C03F0E0ED5DFC4F958F9B
:1012500080933C03FF91EF919F918F912F910F907D
:101260000BBE0F900FBE0F901F9018958081F2CF8C
:101270001F920F920FB60F9211240BB60F922F935D
:101280003F934F935F936F937F938F939F93AF930E
:10129000BF93EF93FF9348E251E064E271E090E086
:1012A00080E00E94D304FF91EF91BF91AF919F9195
:1012B0008F917F916F915F914F913F912F910F90FF
:1012C0000BBE0F900FBE0F901F9018951F920F929C
:1012D0000FB60F9211240BB60F922F933F934F939B
:1012E0005F936F937F938F939F93AF93BF93EF938E
:1012F000FF9348EA50E064EA70E083E090E00E94E7
:10130000D304FF91EF91BF91AF919F918F917F9106
:101310006F915F914F913F912F910F900BBE0F9066
:101320000FBE0F901F9018951F920F920FB60F923D
:1013300011240BB60F922F933F934F935F936F93AC
:101340007F938F939F93AF93BF93EF93FF9348E95E
:1013500050E064E970E082E090E00E94D304FF91E5
:10136000EF91BF91AF919F918F917F916F915F911D
:101370004F913F912F910F900BBE0F900FBE0F908A
:101380001F9018951F920F920FB60F9211240BB653
:101390000F922F933F934F935F936F937F938F930E
:1013A0009F93AF93BF93EF93FF9348E850E064E8B7
:1013B00070E081E090E00E94D304FF91EF91BF9133
:1013C000AF919F918F917F916F915F914F913F91DD
:1013D0002F910F900BBE0F900FBE0F901F9018957E
:1013E000109289021092880248EE53E060E070E0AB
:1013F00040938A0250938B0260938C0270938D020B
:1014000088E192E090938702809386022DEC30E091
:1014100030939302209392022CEC30E030939502AB
:101420002093940228EC30E03093970220939602A8
:1014300029EC30E030939902209398022AEC30E0B6
:1014400030939B0220939A022EEC30E030939D0261
:1014500020939C0210929F021092A0021092A1026F
:101460001092A202109226031092250340932703A4
:10147000509328036093290370932A0390932403C5
:101480008093230385EC90E09093300380932F03A7
:1014900084EC90E0909332038093310380EC90E0F1
:1014A000909334038093330381EC90E09093360360
:1014B0008093350382EC90E0909338038093370358
:1014C00086EC90E090933A038093390310923C03AA
:1014D00010923D0310923E0310923F031092C403FA
:1014E0001092C3038AE292E09093C2038093C103F7
:1014F00080E58093CD0381E08093CE0380EC93E080
:101500009093D0038093CF038AE090E09093D2032E
:101510008093D10389E090E09093D4038093D30328
:1015200022E030E03093D6032093D5031092D70306
:101530001092D8031092D9031092DA031092DC03B0
:101540001092DB031092DE031092DD031092E00391
:101550001092DF031092E2031092E1031092C50390
:101560001092C6031092C7031092C80346E350E0DE
:101570005093EA034093E9033093EC032093EB0389
:101580009093E8038093E70380E49EE0AFECB9E139
:101590008093E3039093E403A093E503B093E60301
:1015A00080917D04803308F0DAC091E0980F909329
:1015B0007D0480937E0490E0FC01EE0FFF1FE80F96
:1015C000F91FE351FC4F88EB9BE0928381831092DB
:1015D0008104109282041092840410928304109269
:1015E0008504109286041092870410928804109249
:1015F000890410928B0410928A0410928C04109229
:101600008D0410928E0410928F0410929004109208
:1016100092041092910410929304109294041092E8
:1016200095041092960410929704109299041092C7
:10163000980410929A0410929B0410929C041092A9
:101640009D0410929E041092A3041092A404109280
:10165000A5041092A6041092A7041092A804109258
:10166000B1041092B2041092B3041092B404109218
:10167000B5041092B6041092BF041092C0041092E8
:10168000C5041092C6041092C7041092C8041092A8
:10169000CD041092CE041092D3041092D404109270
:1016A000D5041092D6041092DB041092DC04109240
:1016B000E1041092E2041092E3041092E404109208
:1016C000E9041092EA041092EF041092F0041092D0
:1016D000F1041092F2041092F7041092F8041092A0
:1016E000FD041092FE041092FF0410920005109267
:1016F00005051092060582E08093160510921705E5
:10170000109218051092190510921B0510921A05D7
:1017100010921D0510921C0510921E0510921F05B7
:101720001092200510922105109222051092230597
:101730001092240510922505109226051092270577
:10174000109228051092290510922A0510922B0557
:1017500010922C0510922D051092070508958FEF19
:1017600080937E0434CFCF93DF93CDB7DEB72E972F
:101770000FB6F894DEBF0FBECDBF789484B58260FB
:1017800084BD84B5816084BD85B5826085BD85B525
:10179000816085BD80916E00816080936E001092A3
:1017A000810080918100826080938100809181001E
:1017B00081608093810080918000816080938000AF
:1017C0008091B10084608093B1008091B00081600D
:1017D0008093B0008091910082608093910080910D
:1017E000910081608093910080919000816080934E
:1017F00090008091A10082608093A1008091A1005F
:1018000081608093A1008091A00081608093A000FE
:10181000809121018260809321018091210181606A
:10182000809321018091200181608093200180912B
:101830007A00846080937A0080917A00826080933D
:101840007A0080917A00816080937A0080917A009A
:10185000806880937A001092C10083E293E00E9436
:10186000910160E08091EB030E94440286E892E0DF
:101870000E9491012091E703298380917E048033A7
:1018800008F054C061E0822F0E94440280917E04DF
:10189000282F30E0F901EE0FFF1FE20FF31FE35195
:1018A000FC4F39813F739081907C932B90831092F1
:1018B0007F04109280042CE0622F0E944514829FC6
:1018C000B001112430E020E0AB01420F531FFA01B8
:1018D000EE0FFF1FE40FF51FE351FC4F908196FDC3
:1018E00017C02F5F3F4F2C30310571F7813009F061
:1018F000C3C11092800082E0809381001092850025
:1019000010928400B19A80916F00826080936F0082
:10191000E0917E048E2F90E0FC01EE0FFF1FE80F98
:10192000F91FE351FC4F808180648083C090E30302
:10193000D090E403E090E503F090E60361E080914D
:10194000D1030E94440261E08091D1030E94B8015A
:101950008091D3039091D4038F3F9807C9F061E041
:101960000E94440260E08091D3030E94B8016AE0C3
:1019700070E080E090E00E949A0261E08091D303E1
:101980000E94B8016AE070E080E090E00E949A0254
:101990003FB73983F89480917C02811127C0EDE133
:1019A000F2E08491E3E6F2E09491E82FF0E0EE0FAC
:1019B000FF1FEC54FE4FA591B491EC91E92321F463
:1019C00061E085E30E94B80161E085E30E94440282
:1019D0008CB580618CBD8CB580648CBD61E084E386
:1019E0000E94440261E083E30E94440280917C02F1
:1019F0008F5F80937C0289818FBF62E481EC93E0EA
:101A00000E942C04823109F084C040E861E881EC36
:101A100093E00E940704C092D703D092D803E092CB
:101A2000D903F092DA0346015701BB0C8808982CC1
:101A300054019601A701682D782D882D982D03E17A
:101A40000E94B814A12CE8E4BE2EF8EECF2EDD24BF
:101A5000D394E12CF12C00E010E00E945B14298368
:101A6000B32E6A017B01182F9D8300E10E94D314DD
:101A7000422F66E881EC93E00E94070429813B2D08
:101A8000A601B701812F9D8108E00E94D314422F47
:101A900067E881EC93E00E940704498168E881ECE3
:101AA00093E00E94070440E06EE881EC93E00E941E
:101AB000070440E06FE881EC93E00E9407046CE0CB
:101AC00081EC93E00E942C04482F43606CE881EC89
:101AD00093E00E94070444E066EA81EC93E00E94F0
:101AE000070444E86DEC81EC93E00E9407044BE2AC
:101AF0006BE881EC93E00E9407044FE869E881EC11
:101B000093E00E94070441E861E881EC93E00E94C1
:101B1000070458E5252E52E0352E8091E9038633DF
:101B200008F0865320917B00982F9870277F922B86
:101B300090937B008770806480937C0080917A0012
:101B4000806480937A0080917A0086FDFCCF60915A
:101B5000780070917900072E000C880B990B0E9479
:101B600093102BE03DE244EB5EE30E94F2106983A8
:101B70007A838B839C830E9434106B017C0164E424
:101B800072E083E293E00E948D05C701B60123E174
:101B900030E040E050E00E94B0116F5F7F4F8F4F08
:101BA0009F4F0E949310AB01BC0122E083E293E0BF
:101BB0000E94E80561E572E083E293E00E948D05F2
:101BC00080918104882309F483C01092820460917B
:101BD00085047091860480918704909188040E9406
:101BE000911028E23BE64EE65EE40E94F7126B019C
:101BF0007C01609183047091840490E080E00E94F5
:101C000091109B01AC01C701B6010E9414122B0177
:101C10003C0180918904882321F077FA709477F849
:101C2000709460918C0470918D0480918E049091D9
:101C30008F040E94911028E23BE64EE65EE40E948B
:101C4000F7126B017C0160918A0470918B0490E023
:101C500080E00E9491109B01AC01C701B6010E9477
:101C600014129B01AC018091900481115058022FF5
:101C70003D874E87152F35C0823061F41092900059
:101C800080939100109295001092940088BB8093ED
:101C900071003ECE833069F41092A00082E0809300
:101CA000A1001092A5001092A40089BB809372003D
:101CB0002FCE81112DCE1092200182E08093210140
:101CC00010922501109224018ABB8093730020CECC
:101CD000412C512C320100E01D861E8610E0A3012C
:101CE000920162E173E084E992EC0E94131225E311
:101CF0003AEF4EE85CE30E94F2104B015C0125E3F1
:101D00003AEF4EE85CE3C301B2010E94F2106B01AE
:101D10007C01C501B4010E9412146D837E838F8300
:101D20009887C701B6010E94121469877A878B874A
:101D30009C87C501B4010E94F2124B015C012CE8A2
:101D40003BE042E45FE369857A858B859C850E9450
:101D5000F210A50194010E94F2104B015C01C70131
:101D6000B6010E94F21224E03BEF46E25FE30E94DC
:101D7000F210A50194010E9413126B017C012CE862
:101D80003BE042E45FE36D817E818F8198850E9414
:101D9000F210A70196010E9493126B017C0120E0D2
:101DA00030E0A9010E948C1087FF0AC02BED3FE0B4
:101DB00049EC50E4C701B6010E9414126B017C018A
:101DC00021EE3EE245E652E4C701B6010E94F21060
:101DD0006B017C0129813A814B815C810E94131245
:101DE0000E946913DB0177FFEEC0A859BE4FB7FD13
:101DF000E7C0A53BB10514F0A4EBB0E080917F04EF
:101E000098E8892E912C881A910887FD9394880C64
:101E1000991C880C991C092C000CAA08BB088091FD
:101E200080049101281B310987FD3395220F331F50
:101E3000220F331F032E000C440B550B28193909B0
:101E40004A095B090E94DA1124EB30E040E050E0DF
:101E50000E94B011820E931EA41EB51ED4014091A3
:101E60007E04403388F580917F0428E830E0281B09
:101E7000310987FD3395C901880F991F880F991F74
:101E8000A817B90784F0809180049101281B3109BB
:101E900087FD3395C901880F991F880F991FA817CF
:101EA000B9070CF4CD010297880F991F6FB7F8940A
:101EB00050E09A01220F331F240F351FF901E3511F
:101EC000FC4F928381836FBF61E081EC93E00E94BD
:101ED0002C048370833079F162E181EC93E00E94FD
:101EE0002C0483FF06C048E062E981EC93E00E9485
:101EF000070441E861E881EC93E00E940704109236
:101F0000DE031092DD036DE181EC93E00E942C046E
:101F1000482F4E7F6DE981EC93E00E94070440E07A
:101F20006DE881EC93E00E94070440E062EA81ECF6
:101F300093E00E94070464E572E081EC93E00E9464
:101F40008D0526E0B301A20181EC93E00E94E80533
:101F50006FE572E081EC93E00E948D0526E0402F52
:101F60005D856E85712F81EC93E00E94E8056CE63B
:101F700072E081EC93E00E948D0522E0B701A6019A
:101F800081EC93E00E94E80543E861E881EC93E08E
:101F90000E94070462E181EC93E00E942C0483FF1D
:101FA000F9CF48E062E981EC93E00E94070468EE13
:101FB00073E080E090E00E949A020E94DA03ADCDC7
:101FC000B0E0A0E01BCF603272400CF048CF11CFE0
:101FD0008F929F92AF92BF92CF92DF92EF92FF9239
:101FE000CF93DF93EC01688179818A819B816115B0
:101FF00071058105910521F464E279ED8BE597E0A7
:102000002DE133EF41E050E00E94B01149015A0147
:102010009B01AC01A7EAB1E40E94CF116B017C01E6
:10202000ACEEB4EFA50194010E94DD11C60ED71EDF
:10203000E81EF91EF7FE06C081E0C81AD108E108C3
:1020400080E8F80AC882D982EA82FB82C701B60119
:102050009F77DF91CF91FF90EF90DF90CF90BF906F
:10206000AF909F908F9008958F929F92AF92BF9262
:10207000CF92DF92EF92FF92609110027091110265
:1020800080911202909113026115710581059105ED
:1020900021F464E279ED8BE597E02DE133EF41E047
:1020A00050E00E94B01149015A019B01AC01A7EA1E
:1020B000B1E40E94CF116B017C01ACEEB4EFA5013D
:1020C00094010E94DD11C60ED71EE81EF91EF7FE10
:1020D00006C081E0C81AD108E10880E8F80AC09279
:1020E0001002D0921102E0921202F0921302C70184
:1020F000B6019F77FF90EF90DF90CF90BF90AF90A9
:102100009F908F90089560931002709311028093B6
:1021100012029093130208950E94CE1008F481E0F9
:102120000895E89409C097FB3EF4909580957095CA
:1021300061957F4F8F4F9F4F9923A9F0F92F96E913
:10214000BB279395F695879577956795B795F11188
:10215000F8CFFAF4BB0F11F460FF1BC06F5F7F4F25
:102160008F4F9F4F16C0882311F096E911C0772337
:1021700021F09EE8872F762F05C0662371F096E840
:10218000862F70E060E02AF09A95660F771F881F0F
:10219000DAF7880F9695879597F90895990F0008B3
:1021A000550FAA0BE0E8FEEF16161706E807F90729
:1021B000C0F012161306E407F50798F0621B730BC4
:1021C000840B950B39F40A2661F0232B242B252B45
:1021D00021F408950A2609F4A140A6958FEF811DE8
:1021E000811D08950E9405110C9476110E946811BA
:1021F00038F00E946F1120F0952311F00C945F11BC
:102200000C94651111240C94AA110E94871170F38B
:10221000959FC1F3950F50E0551F629FF001729F8B
:10222000BB27F00DB11D639FAA27F00DB11DAA1F9A
:10223000649F6627B00DA11D661F829F2227B00DE7
:10224000A11D621F739FB00DA11D621F839FA00D72
:10225000611D221F749F3327A00D611D231F849FC2
:10226000600D211D822F762F6A2F11249F57504019
:102270009AF0F1F088234AF0EE0FFF1FBB1F661F94
:10228000771F881F91505040A9F79E3F510580F05D
:102290000C945F110C94AA115F3FE4F3983ED4F3C1
:1022A000869577956795B795F795E7959F5FC1F701
:1022B000FE2B880F911D9695879597F9089597F9AC
:1022C0009F6780E870E060E008959FEF80EC0895DC
:1022D00000240A9416161706180609060895002405
:1022E0000A9412161306140605060895092E03947F
:1022F000000C11F4882352F0BB0F40F4BF2B11F4F3
:1023000060FF04C06F5F7F4F8F4F9F4F089557FD51
:102310009058440F551F59F05F3F71F04795880F53
:1023200097FB991F61F09F3F79F0879508951216EA
:1023300013061406551FF2CF4695F1DF08C0161696
:1023400017061806991FF1CF869571056105089447
:102350000895E894BB2766277727CB0197F908955E
:10236000052E97FB1EF400940E94C71157FD07D05D
:102370000E94E21107FC03D04EF40C94C711509553
:102380004095309521953F4F4F4F5F4F0895909561
:102390008095709561957F4F8F4F9F4F08950E9454
:1023A0000412A59F900DB49F900DA49F800D911DC8
:1023B00011240895B7FF0C94CF110E94CF11821BF6
:1023C000930B0895A1E21A2EAA1BBB1BFD010DC0A1
:1023D000AA1FBB1FEE1FFF1FA217B307E407F507D5
:1023E00020F0A21BB30BE40BF50B661F771F881FB1
:1023F000991F1A9469F760957095809590959B0147
:10240000AC01BD01CF010895A29FB001B39FC001EF
:10241000A39F700D811D1124911DB29F700D811D10
:102420001124911D08955058BB27AA270E942B12F2
:102430000C9476110E94681138F00E946F1120F000
:1024400039F49F3F19F426F40C9465110EF4E095CD
:10245000E7FB0C945F11E92F0E94871158F3BA171C
:10246000620773078407950720F079F4A6F50C94AA
:10247000A9110EF4E0950B2EBA2FA02D0B01B90176
:1024800090010C01CA01A0011124FF27591B99F0EA
:10249000593F50F4503E68F11A16F040A22F232FF6
:1024A000342F4427585FF3CF469537952795A79546
:1024B000F0405395C9F77EF41F16BA0B620B730BED
:1024C000840BBAF09150A1F0FF0FBB1F661F771F5E
:1024D000881FC2F70EC0BA0F621F731F841F48F413
:1024E000879577956795B795F7959E3F08F0B0CF9C
:1024F0009395880F08F09927EE0F97958795089583
:102500000E94681160F080E891E009F49EEF0E945B
:102510006F1128F040E851E071F45EEF0CC00C94AC
:1025200065110C94A911E92FE0780E94871140F3FE
:10253000092E052AB1F3261737074807590738F03F
:102540000E2E07F8E02569F0E025E0640AC0EF638D
:1025500007F8009407FADB01B9019D01DC01CA010B
:10256000AD01EF930E940E130E9476110E94C312D8
:102570005F91552339F02BED3FE049E450FD49ECE4
:102580000C9414120895DF93DD27B92FBF7740E82C
:102590005FE31616170648075B0718F4D92F0E9449
:1025A0000A149F938F937F936F930E941A14E4EE03
:1025B000F0E00E949F130E9476112F913F914F915E
:1025C0005F910E940511DD2351F09058A2EA2AED97
:1025D0003FE049EC5FE3D0785D270E942B12DF914A
:1025E0000C9476110E94C813E3950C94F1130E9489
:1025F0000B130C9476110E946F1158F00E94681111
:1026000040F029F45F3F29F00C945F1151110C94B4
:10261000AA110C9465110E94871168F39923B1F3F4
:10262000552391F3951B550BBB27AA2762177307F8
:10263000840738F09F5F5F4F220F331F441FAA1F8C
:10264000A9F335D00E2E3AF0E0E832D09150504048
:10265000E695001CCAF72BD0FE2F29D0660F771FF6
:10266000881FBB1F261737074807AB07B0E809F0DC
:10267000BB0B802DBF01FF2793585F4F3AF09E3F61
:10268000510578F00C945F110C94AA115F3FE4F3AC
:10269000983ED4F3869577956795B795F7959F5FA4
:1026A000C9F7880F911D9695879597F90895E1E0F0
:1026B000660F771F881FBB1F621773078407BA074F
:1026C00020F0621B730B840BBA0BEE1F88F7E095AA
:1026D00008950E9470136894B1110C94AA11089582
:1026E0000E948F1188F09F5798F0B92F9927B75102
:1026F000B0F0E1F0660F771F881F991F1AF0BA95A6
:10270000C9F714C0B13091F00E94A911B1E0089549
:102710000C94A911672F782F8827B85F39F0B93F3B
:10272000CCF3869577956795B395D9F73EF4909558
:102730008095709561957F4F8F4F9F4F0895DF93E0
:10274000CF931F930F93FF92EF92DF927B018C0147
:10275000689406C0DA2EEF010E940511FE01E8948C
:10276000A5912591359145915591A6F3EF010E94D0
:102770002B12FE019701A801DA9469F7DF90EF9020
:10278000FF900F911F91CF91DF9108950C946511E7
:102790000E948F11D8F3E894E0E0BB279F57F0F038
:1027A0002AED3FE049EC06C0EE0FBB0F661F771F16
:1027B000881F28F0B23A62077307840728F0B25ADC
:1027C000620B730B840BE3959A9572F7803830F4A3
:1027D0009A95BB0F661F771F881FD2F790480C94FD
:1027E0002514EF93E0FF07C0A2EA2AED3FE049EC91
:1027F0005FEB0E942B120E9476110F90039401FC54
:102800009058E1E1F1E00C9431140E94CE1008F4EC
:102810008FEF08959B01AC0160E070E080E89FE3DA
:102820000C94F7129F930E94C8130F9007FCEE5F61
:102830000C94F1139B01AC010C94F2100E94CE1089
:10284000880B990B08959F3F31F0915020F48795A4
:1028500077956795B795880F911D9695879597F908
:1028600008959F938F937F936F93FF93EF939B01B3
:10287000AC010E94F210EF91FF910E949F132F91E3
:102880003F914F915F910C94F210991B79E004C035
:10289000991F961708F0961B881F7A95C9F780959F
:1028A0000895EE0FFF1F881F8BBF0790F691E02D54
:1028B0001994689401C0E8948F929F92CF93DF930C
:1028C0000E946714DF91CF919F908F900895882484
:1028D0009924F401E401B0E49F93AA279A158B048C
:1028E0009C04ED05FE05CF05D007A10798F4AD2F98
:1028F000DC2FCF2FFE2FE92D982C892E982F872F94
:10290000762F652F542F432F322F2227B85031F7BF
:10291000BF9127C01B2EBF91BB27220F331F441F1F
:10292000551F661F771F881F991F881C991CEE1F53
:10293000FF1FCC1FDD1FAA1FBB1F8A149B04EC05C1
:10294000FD05CE05DF05A007B10748F08A189B08F2
:10295000EC09FD09CE09DF09A00BB10B21601A9427
:10296000E1F62EF49401AF01BE01CD01000C0895F3
:10297000002E083090F0982F872F762F652F542F38
:10298000432F322F22270850F4CF220F331F441F2A
:10299000551F661F771F881F991F0A95B2F7002DD4
:1029A000089597FD1094002E083098F00850232FBA
:1029B000342F452F562F672F782F892F912DF4CF45
:1029C000159497958795779567955795479537957A
:1029D00027950A95AAF71124002D0895F894FFCFA2
:1029E000CC02CC02CC02CC02CC02CC02CC02CC0277
:1029F00001000000000000006D03CD02FA02BA03DE
:102A00002B0309031D0300000000BA047F04D00457
:102A10002F047104560430046E616E00696E660006
:102A20006F76660057696E642053706565643A205E
:102A3000000D0A004C617469747564653A200020C9
:102A40004C6F6E6769747564653A20002042656159
:082A500072696E673A20000074
:00000001FF
